{
	"contracts/Stakingv1.sol": {
		"StakingRewards": {
			"abi": [
				{
					"inputs": [
						{
							"internalType": "contract IERC20",
							"name": "_stakingToken",
							"type": "address"
						},
						{
							"internalType": "contract IERC20",
							"name": "_rewardToken",
							"type": "address"
						}
					],
					"stateMutability": "nonpayable",
					"type": "constructor"
				},
				{
					"inputs": [],
					"name": "MAX_REWARD_RATE",
					"outputs": [
						{
							"internalType": "uint256",
							"name": "",
							"type": "uint256"
						}
					],
					"stateMutability": "view",
					"type": "function"
				},
				{
					"inputs": [],
					"name": "MIN_REWARD_RATE",
					"outputs": [
						{
							"internalType": "uint256",
							"name": "",
							"type": "uint256"
						}
					],
					"stateMutability": "view",
					"type": "function"
				},
				{
					"inputs": [],
					"name": "claimRewards",
					"outputs": [],
					"stateMutability": "nonpayable",
					"type": "function"
				},
				{
					"inputs": [
						{
							"internalType": "address",
							"name": "",
							"type": "address"
						}
					],
					"name": "rewardBalance",
					"outputs": [
						{
							"internalType": "uint256",
							"name": "",
							"type": "uint256"
						}
					],
					"stateMutability": "view",
					"type": "function"
				},
				{
					"inputs": [],
					"name": "rewardToken",
					"outputs": [
						{
							"internalType": "contract IERC20",
							"name": "",
							"type": "address"
						}
					],
					"stateMutability": "view",
					"type": "function"
				},
				{
					"inputs": [
						{
							"internalType": "uint256",
							"name": "_amount",
							"type": "uint256"
						}
					],
					"name": "stake",
					"outputs": [],
					"stateMutability": "nonpayable",
					"type": "function"
				},
				{
					"inputs": [
						{
							"internalType": "address",
							"name": "",
							"type": "address"
						}
					],
					"name": "stakingBalance",
					"outputs": [
						{
							"internalType": "uint256",
							"name": "",
							"type": "uint256"
						}
					],
					"stateMutability": "view",
					"type": "function"
				},
				{
					"inputs": [
						{
							"internalType": "address",
							"name": "",
							"type": "address"
						}
					],
					"name": "stakingStartTime",
					"outputs": [
						{
							"internalType": "uint256",
							"name": "",
							"type": "uint256"
						}
					],
					"stateMutability": "view",
					"type": "function"
				},
				{
					"inputs": [],
					"name": "stakingToken",
					"outputs": [
						{
							"internalType": "contract IERC20",
							"name": "",
							"type": "address"
						}
					],
					"stateMutability": "view",
					"type": "function"
				},
				{
					"inputs": [
						{
							"internalType": "uint256",
							"name": "_amount",
							"type": "uint256"
						}
					],
					"name": "withdraw",
					"outputs": [],
					"stateMutability": "nonpayable",
					"type": "function"
				}
			],
			"devdoc": {
				"kind": "dev",
				"methods": {},
				"version": 1
			},
			"evm": {
				"assembly": "    /* \"contracts/Stakingv1.sol\":121:2294  contract StakingRewards {... */\n  mstore(0x40, 0x80)\n    /* \"contracts/Stakingv1.sol\":506:645  constructor(IERC20 _stakingToken, IERC20 _rewardToken) {... */\n  callvalue\n  dup1\n  iszero\n  tag_1\n  jumpi\n  0x00\n  dup1\n  revert\ntag_1:\n  pop\n  mload(0x40)\n  sub(codesize, bytecodeSize)\n  dup1\n  bytecodeSize\n  dup4\n  codecopy\n  dup2\n  dup2\n  add\n  0x40\n  mstore\n  dup2\n  add\n  swap1\n  tag_2\n  swap2\n  swap1\n  tag_3\n  jump\t// in\ntag_2:\n    /* \"contracts/Stakingv1.sol\":587:600  _stakingToken */\n  dup2\n    /* \"contracts/Stakingv1.sol\":572:584  stakingToken */\n  0x00\n  dup1\n    /* \"contracts/Stakingv1.sol\":572:600  stakingToken = _stakingToken */\n  0x0100\n  exp\n  dup2\n  sload\n  dup2\n  0xffffffffffffffffffffffffffffffffffffffff\n  mul\n  not\n  and\n  swap1\n  dup4\n  0xffffffffffffffffffffffffffffffffffffffff\n  and\n  mul\n  or\n  swap1\n  sstore\n  pop\n    /* \"contracts/Stakingv1.sol\":625:637  _rewardToken */\n  dup1\n    /* \"contracts/Stakingv1.sol\":611:622  rewardToken */\n  0x01\n  0x00\n    /* \"contracts/Stakingv1.sol\":611:637  rewardToken = _rewardToken */\n  0x0100\n  exp\n  dup2\n  sload\n  dup2\n  0xffffffffffffffffffffffffffffffffffffffff\n  mul\n  not\n  and\n  swap1\n  dup4\n  0xffffffffffffffffffffffffffffffffffffffff\n  and\n  mul\n  or\n  swap1\n  sstore\n  pop\n    /* \"contracts/Stakingv1.sol\":506:645  constructor(IERC20 _stakingToken, IERC20 _rewardToken) {... */\n  pop\n  pop\n    /* \"contracts/Stakingv1.sol\":121:2294  contract StakingRewards {... */\n  jump(tag_6)\n    /* \"#utility.yul\":88:205   */\ntag_8:\n    /* \"#utility.yul\":197:198   */\n  0x00\n    /* \"#utility.yul\":194:195   */\n  dup1\n    /* \"#utility.yul\":187:199   */\n  revert\n    /* \"#utility.yul\":334:460   */\ntag_10:\n    /* \"#utility.yul\":371:378   */\n  0x00\n    /* \"#utility.yul\":411:453   */\n  0xffffffffffffffffffffffffffffffffffffffff\n    /* \"#utility.yul\":404:409   */\n  dup3\n    /* \"#utility.yul\":400:454   */\n  and\n    /* \"#utility.yul\":389:454   */\n  swap1\n  pop\n    /* \"#utility.yul\":334:460   */\n  swap2\n  swap1\n  pop\n  jump\t// out\n    /* \"#utility.yul\":466:562   */\ntag_11:\n    /* \"#utility.yul\":503:510   */\n  0x00\n    /* \"#utility.yul\":532:556   */\n  tag_21\n    /* \"#utility.yul\":550:555   */\n  dup3\n    /* \"#utility.yul\":532:556   */\n  tag_10\n  jump\t// in\ntag_21:\n    /* \"#utility.yul\":521:556   */\n  swap1\n  pop\n    /* \"#utility.yul\":466:562   */\n  swap2\n  swap1\n  pop\n  jump\t// out\n    /* \"#utility.yul\":568:677   */\ntag_12:\n    /* \"#utility.yul\":618:625   */\n  0x00\n    /* \"#utility.yul\":647:671   */\n  tag_23\n    /* \"#utility.yul\":665:670   */\n  dup3\n    /* \"#utility.yul\":647:671   */\n  tag_11\n  jump\t// in\ntag_23:\n    /* \"#utility.yul\":636:671   */\n  swap1\n  pop\n    /* \"#utility.yul\":568:677   */\n  swap2\n  swap1\n  pop\n  jump\t// out\n    /* \"#utility.yul\":683:831   */\ntag_13:\n    /* \"#utility.yul\":769:806   */\n  tag_25\n    /* \"#utility.yul\":800:805   */\n  dup2\n    /* \"#utility.yul\":769:806   */\n  tag_12\n  jump\t// in\ntag_25:\n    /* \"#utility.yul\":762:767   */\n  dup2\n    /* \"#utility.yul\":759:807   */\n  eq\n    /* \"#utility.yul\":749:825   */\n  tag_26\n  jumpi\n    /* \"#utility.yul\":821:822   */\n  0x00\n    /* \"#utility.yul\":818:819   */\n  dup1\n    /* \"#utility.yul\":811:823   */\n  revert\n    /* \"#utility.yul\":749:825   */\ntag_26:\n    /* \"#utility.yul\":683:831   */\n  pop\n  jump\t// out\n    /* \"#utility.yul\":837:1006   */\ntag_14:\n    /* \"#utility.yul\":907:912   */\n  0x00\n    /* \"#utility.yul\":938:944   */\n  dup2\n    /* \"#utility.yul\":932:945   */\n  mload\n    /* \"#utility.yul\":923:945   */\n  swap1\n  pop\n    /* \"#utility.yul\":954:1000   */\n  tag_28\n    /* \"#utility.yul\":994:999   */\n  dup2\n    /* \"#utility.yul\":954:1000   */\n  tag_13\n  jump\t// in\ntag_28:\n    /* \"#utility.yul\":837:1006   */\n  swap3\n  swap2\n  pop\n  pop\n  jump\t// out\n    /* \"#utility.yul\":1012:1571   */\ntag_3:\n    /* \"#utility.yul\":1117:1123   */\n  0x00\n    /* \"#utility.yul\":1125:1131   */\n  dup1\n    /* \"#utility.yul\":1174:1176   */\n  0x40\n    /* \"#utility.yul\":1162:1171   */\n  dup4\n    /* \"#utility.yul\":1153:1160   */\n  dup6\n    /* \"#utility.yul\":1149:1172   */\n  sub\n    /* \"#utility.yul\":1145:1177   */\n  slt\n    /* \"#utility.yul\":1142:1261   */\n  iszero\n  tag_30\n  jumpi\n    /* \"#utility.yul\":1180:1259   */\n  tag_31\n  tag_8\n  jump\t// in\ntag_31:\n    /* \"#utility.yul\":1142:1261   */\ntag_30:\n    /* \"#utility.yul\":1300:1301   */\n  0x00\n    /* \"#utility.yul\":1325:1402   */\n  tag_32\n    /* \"#utility.yul\":1394:1401   */\n  dup6\n    /* \"#utility.yul\":1385:1391   */\n  dup3\n    /* \"#utility.yul\":1374:1383   */\n  dup7\n    /* \"#utility.yul\":1370:1392   */\n  add\n    /* \"#utility.yul\":1325:1402   */\n  tag_14\n  jump\t// in\ntag_32:\n    /* \"#utility.yul\":1315:1402   */\n  swap3\n  pop\n    /* \"#utility.yul\":1271:1412   */\n  pop\n    /* \"#utility.yul\":1451:1453   */\n  0x20\n    /* \"#utility.yul\":1477:1554   */\n  tag_33\n    /* \"#utility.yul\":1546:1553   */\n  dup6\n    /* \"#utility.yul\":1537:1543   */\n  dup3\n    /* \"#utility.yul\":1526:1535   */\n  dup7\n    /* \"#utility.yul\":1522:1544   */\n  add\n    /* \"#utility.yul\":1477:1554   */\n  tag_14\n  jump\t// in\ntag_33:\n    /* \"#utility.yul\":1467:1554   */\n  swap2\n  pop\n    /* \"#utility.yul\":1422:1564   */\n  pop\n    /* \"#utility.yul\":1012:1571   */\n  swap3\n  pop\n  swap3\n  swap1\n  pop\n  jump\t// out\n    /* \"contracts/Stakingv1.sol\":121:2294  contract StakingRewards {... */\ntag_6:\n  dataSize(sub_0)\n  dup1\n  dataOffset(sub_0)\n  0x00\n  codecopy\n  0x00\n  return\nstop\n\nsub_0: assembly {\n        /* \"contracts/Stakingv1.sol\":121:2294  contract StakingRewards {... */\n      mstore(0x40, 0x80)\n      callvalue\n      dup1\n      iszero\n      tag_1\n      jumpi\n      0x00\n      dup1\n      revert\n    tag_1:\n      pop\n      jumpi(tag_2, lt(calldatasize, 0x04))\n      shr(0xe0, calldataload(0x00))\n      dup1\n      0x718dc3c3\n      gt\n      tag_13\n      jumpi\n      dup1\n      0x718dc3c3\n      eq\n      tag_8\n      jumpi\n      dup1\n      0x72f702f3\n      eq\n      tag_9\n      jumpi\n      dup1\n      0xa694fc3a\n      eq\n      tag_10\n      jumpi\n      dup1\n      0xd1232730\n      eq\n      tag_11\n      jumpi\n      dup1\n      0xf7c618c1\n      eq\n      tag_12\n      jumpi\n      jump(tag_2)\n    tag_13:\n      dup1\n      0x2e1a7d4d\n      eq\n      tag_3\n      jumpi\n      dup1\n      0x372500ab\n      eq\n      tag_4\n      jumpi\n      dup1\n      0x45bc78ab\n      eq\n      tag_5\n      jumpi\n      dup1\n      0x67b40cf7\n      eq\n      tag_6\n      jumpi\n      dup1\n      0x6b12686b\n      eq\n      tag_7\n      jumpi\n    tag_2:\n      0x00\n      dup1\n      revert\n        /* \"contracts/Stakingv1.sol\":1017:1378  function withdraw(uint256 _amount) public {... */\n    tag_3:\n      tag_14\n      0x04\n      dup1\n      calldatasize\n      sub\n      dup2\n      add\n      swap1\n      tag_15\n      swap2\n      swap1\n      tag_16\n      jump\t// in\n    tag_15:\n      tag_17\n      jump\t// in\n    tag_14:\n      stop\n        /* \"contracts/Stakingv1.sol\":1386:1634  function claimRewards() public {... */\n    tag_4:\n      tag_18\n      tag_19\n      jump\t// in\n    tag_18:\n      stop\n        /* \"contracts/Stakingv1.sol\":219:268  mapping(address => uint256) public stakingBalance */\n    tag_5:\n      tag_20\n      0x04\n      dup1\n      calldatasize\n      sub\n      dup2\n      add\n      swap1\n      tag_21\n      swap2\n      swap1\n      tag_22\n      jump\t// in\n    tag_21:\n      tag_23\n      jump\t// in\n    tag_20:\n      mload(0x40)\n      tag_24\n      swap2\n      swap1\n      tag_25\n      jump\t// in\n    tag_24:\n      mload(0x40)\n      dup1\n      swap2\n      sub\n      swap1\n      return\n        /* \"contracts/Stakingv1.sol\":275:323  mapping(address => uint256) public rewardBalance */\n    tag_6:\n      tag_26\n      0x04\n      dup1\n      calldatasize\n      sub\n      dup2\n      add\n      swap1\n      tag_27\n      swap2\n      swap1\n      tag_22\n      jump\t// in\n    tag_27:\n      tag_28\n      jump\t// in\n    tag_26:\n      mload(0x40)\n      tag_29\n      swap2\n      swap1\n      tag_25\n      jump\t// in\n    tag_29:\n      mload(0x40)\n      dup1\n      swap2\n      sub\n      swap1\n      return\n        /* \"contracts/Stakingv1.sol\":390:433  uint256 public constant MIN_REWARD_RATE = 1 */\n    tag_7:\n      tag_30\n      tag_31\n      jump\t// in\n    tag_30:\n      mload(0x40)\n      tag_32\n      swap2\n      swap1\n      tag_25\n      jump\t// in\n    tag_32:\n      mload(0x40)\n      dup1\n      swap2\n      sub\n      swap1\n      return\n        /* \"contracts/Stakingv1.sol\":447:490  uint256 public constant MAX_REWARD_RATE = 7 */\n    tag_8:\n      tag_33\n      tag_34\n      jump\t// in\n    tag_33:\n      mload(0x40)\n      tag_35\n      swap2\n      swap1\n      tag_25\n      jump\t// in\n    tag_35:\n      mload(0x40)\n      dup1\n      swap2\n      sub\n      swap1\n      return\n        /* \"contracts/Stakingv1.sol\":152:178  IERC20 public stakingToken */\n    tag_9:\n      tag_36\n      tag_37\n      jump\t// in\n    tag_36:\n      mload(0x40)\n      tag_38\n      swap2\n      swap1\n      tag_39\n      jump\t// in\n    tag_38:\n      mload(0x40)\n      dup1\n      swap2\n      sub\n      swap1\n      return\n        /* \"contracts/Stakingv1.sol\":653:1009  function stake(uint256 _amount) public {... */\n    tag_10:\n      tag_40\n      0x04\n      dup1\n      calldatasize\n      sub\n      dup2\n      add\n      swap1\n      tag_41\n      swap2\n      swap1\n      tag_16\n      jump\t// in\n    tag_41:\n      tag_42\n      jump\t// in\n    tag_40:\n      stop\n        /* \"contracts/Stakingv1.sol\":330:381  mapping(address => uint256) public stakingStartTime */\n    tag_11:\n      tag_43\n      0x04\n      dup1\n      calldatasize\n      sub\n      dup2\n      add\n      swap1\n      tag_44\n      swap2\n      swap1\n      tag_22\n      jump\t// in\n    tag_44:\n      tag_45\n      jump\t// in\n    tag_43:\n      mload(0x40)\n      tag_46\n      swap2\n      swap1\n      tag_25\n      jump\t// in\n    tag_46:\n      mload(0x40)\n      dup1\n      swap2\n      sub\n      swap1\n      return\n        /* \"contracts/Stakingv1.sol\":185:210  IERC20 public rewardToken */\n    tag_12:\n      tag_47\n      tag_48\n      jump\t// in\n    tag_47:\n      mload(0x40)\n      tag_49\n      swap2\n      swap1\n      tag_39\n      jump\t// in\n    tag_49:\n      mload(0x40)\n      dup1\n      swap2\n      sub\n      swap1\n      return\n        /* \"contracts/Stakingv1.sol\":1017:1378  function withdraw(uint256 _amount) public {... */\n    tag_17:\n        /* \"contracts/Stakingv1.sol\":1108:1115  _amount */\n      dup1\n        /* \"contracts/Stakingv1.sol\":1078:1092  stakingBalance */\n      0x02\n        /* \"contracts/Stakingv1.sol\":1078:1104  stakingBalance[msg.sender] */\n      0x00\n        /* \"contracts/Stakingv1.sol\":1093:1103  msg.sender */\n      caller\n        /* \"contracts/Stakingv1.sol\":1078:1104  stakingBalance[msg.sender] */\n      0xffffffffffffffffffffffffffffffffffffffff\n      and\n      0xffffffffffffffffffffffffffffffffffffffff\n      and\n      dup2\n      mstore\n      0x20\n      add\n      swap1\n      dup2\n      mstore\n      0x20\n      add\n      0x00\n      keccak256\n      sload\n        /* \"contracts/Stakingv1.sol\":1078:1115  stakingBalance[msg.sender] >= _amount */\n      lt\n      iszero\n        /* \"contracts/Stakingv1.sol\":1070:1138  require(stakingBalance[msg.sender] >= _amount, \"Saldo insuficiente\") */\n      tag_51\n      jumpi\n      mload(0x40)\n      0x08c379a000000000000000000000000000000000000000000000000000000000\n      dup2\n      mstore\n      0x04\n      add\n      tag_52\n      swap1\n      tag_53\n      jump\t// in\n    tag_52:\n      mload(0x40)\n      dup1\n      swap2\n      sub\n      swap1\n      revert\n    tag_51:\n        /* \"contracts/Stakingv1.sol\":1149:1163  claimRewards() */\n      tag_54\n        /* \"contracts/Stakingv1.sol\":1149:1161  claimRewards */\n      tag_19\n        /* \"contracts/Stakingv1.sol\":1149:1163  claimRewards() */\n      jump\t// in\n    tag_54:\n        /* \"contracts/Stakingv1.sol\":1204:1211  _amount */\n      dup1\n        /* \"contracts/Stakingv1.sol\":1174:1188  stakingBalance */\n      0x02\n        /* \"contracts/Stakingv1.sol\":1174:1200  stakingBalance[msg.sender] */\n      0x00\n        /* \"contracts/Stakingv1.sol\":1189:1199  msg.sender */\n      caller\n        /* \"contracts/Stakingv1.sol\":1174:1200  stakingBalance[msg.sender] */\n      0xffffffffffffffffffffffffffffffffffffffff\n      and\n      0xffffffffffffffffffffffffffffffffffffffff\n      and\n      dup2\n      mstore\n      0x20\n      add\n      swap1\n      dup2\n      mstore\n      0x20\n      add\n      0x00\n      keccak256\n      0x00\n        /* \"contracts/Stakingv1.sol\":1174:1211  stakingBalance[msg.sender] -= _amount */\n      dup3\n      dup3\n      sload\n      tag_55\n      swap2\n      swap1\n      tag_56\n      jump\t// in\n    tag_55:\n      swap3\n      pop\n      pop\n      dup2\n      swap1\n      sstore\n      pop\n        /* \"contracts/Stakingv1.sol\":1222:1234  stakingToken */\n      0x00\n      dup1\n      sload\n      swap1\n      0x0100\n      exp\n      swap1\n      div\n      0xffffffffffffffffffffffffffffffffffffffff\n      and\n        /* \"contracts/Stakingv1.sol\":1222:1243  stakingToken.transfer */\n      0xffffffffffffffffffffffffffffffffffffffff\n      and\n      0xa9059cbb\n        /* \"contracts/Stakingv1.sol\":1244:1254  msg.sender */\n      caller\n        /* \"contracts/Stakingv1.sol\":1256:1263  _amount */\n      dup4\n        /* \"contracts/Stakingv1.sol\":1222:1264  stakingToken.transfer(msg.sender, _amount) */\n      mload(0x40)\n      dup4\n      0xffffffff\n      and\n      0xe0\n      shl\n      dup2\n      mstore\n      0x04\n      add\n      tag_57\n      swap3\n      swap2\n      swap1\n      tag_58\n      jump\t// in\n    tag_57:\n      0x20\n      mload(0x40)\n      dup1\n      dup4\n      sub\n      dup2\n      0x00\n      dup8\n      gas\n      call\n      iszero\n      dup1\n      iszero\n      tag_60\n      jumpi\n      returndatasize\n      0x00\n      dup1\n      returndatacopy\n      revert(0x00, returndatasize)\n    tag_60:\n      pop\n      pop\n      pop\n      pop\n      mload(0x40)\n      returndatasize\n      not(0x1f)\n      0x1f\n      dup3\n      add\n      and\n      dup3\n      add\n      dup1\n      0x40\n      mstore\n      pop\n      dup2\n      add\n      swap1\n      tag_61\n      swap2\n      swap1\n      tag_62\n      jump\t// in\n    tag_61:\n      pop\n        /* \"contracts/Stakingv1.sol\":1309:1310  0 */\n      0x00\n        /* \"contracts/Stakingv1.sol\":1279:1293  stakingBalance */\n      0x02\n        /* \"contracts/Stakingv1.sol\":1279:1305  stakingBalance[msg.sender] */\n      0x00\n        /* \"contracts/Stakingv1.sol\":1294:1304  msg.sender */\n      caller\n        /* \"contracts/Stakingv1.sol\":1279:1305  stakingBalance[msg.sender] */\n      0xffffffffffffffffffffffffffffffffffffffff\n      and\n      0xffffffffffffffffffffffffffffffffffffffff\n      and\n      dup2\n      mstore\n      0x20\n      add\n      swap1\n      dup2\n      mstore\n      0x20\n      add\n      0x00\n      keccak256\n      sload\n        /* \"contracts/Stakingv1.sol\":1279:1310  stakingBalance[msg.sender] == 0 */\n      sub\n        /* \"contracts/Stakingv1.sol\":1275:1371  if (stakingBalance[msg.sender] == 0) {... */\n      tag_63\n      jumpi\n        /* \"contracts/Stakingv1.sol\":1358:1359  0 */\n      0x00\n        /* \"contracts/Stakingv1.sol\":1327:1343  stakingStartTime */\n      0x04\n        /* \"contracts/Stakingv1.sol\":1327:1355  stakingStartTime[msg.sender] */\n      0x00\n        /* \"contracts/Stakingv1.sol\":1344:1354  msg.sender */\n      caller\n        /* \"contracts/Stakingv1.sol\":1327:1355  stakingStartTime[msg.sender] */\n      0xffffffffffffffffffffffffffffffffffffffff\n      and\n      0xffffffffffffffffffffffffffffffffffffffff\n      and\n      dup2\n      mstore\n      0x20\n      add\n      swap1\n      dup2\n      mstore\n      0x20\n      add\n      0x00\n      keccak256\n        /* \"contracts/Stakingv1.sol\":1327:1359  stakingStartTime[msg.sender] = 0 */\n      dup2\n      swap1\n      sstore\n      pop\n        /* \"contracts/Stakingv1.sol\":1275:1371  if (stakingBalance[msg.sender] == 0) {... */\n    tag_63:\n        /* \"contracts/Stakingv1.sol\":1017:1378  function withdraw(uint256 _amount) public {... */\n      pop\n      jump\t// out\n        /* \"contracts/Stakingv1.sol\":1386:1634  function claimRewards() public {... */\n    tag_19:\n        /* \"contracts/Stakingv1.sol\":1428:1442  uint256 reward */\n      0x00\n        /* \"contracts/Stakingv1.sol\":1445:1473  calculateRewards(msg.sender) */\n      tag_65\n        /* \"contracts/Stakingv1.sol\":1462:1472  msg.sender */\n      caller\n        /* \"contracts/Stakingv1.sol\":1445:1461  calculateRewards */\n      tag_66\n        /* \"contracts/Stakingv1.sol\":1445:1473  calculateRewards(msg.sender) */\n      jump\t// in\n    tag_65:\n        /* \"contracts/Stakingv1.sol\":1428:1473  uint256 reward = calculateRewards(msg.sender) */\n      swap1\n      pop\n        /* \"contracts/Stakingv1.sol\":1512:1513  0 */\n      0x00\n        /* \"contracts/Stakingv1.sol\":1484:1497  rewardBalance */\n      0x03\n        /* \"contracts/Stakingv1.sol\":1484:1509  rewardBalance[msg.sender] */\n      0x00\n        /* \"contracts/Stakingv1.sol\":1498:1508  msg.sender */\n      caller\n        /* \"contracts/Stakingv1.sol\":1484:1509  rewardBalance[msg.sender] */\n      0xffffffffffffffffffffffffffffffffffffffff\n      and\n      0xffffffffffffffffffffffffffffffffffffffff\n      and\n      dup2\n      mstore\n      0x20\n      add\n      swap1\n      dup2\n      mstore\n      0x20\n      add\n      0x00\n      keccak256\n        /* \"contracts/Stakingv1.sol\":1484:1513  rewardBalance[msg.sender] = 0 */\n      dup2\n      swap1\n      sstore\n      pop\n        /* \"contracts/Stakingv1.sol\":1561:1572  rewardToken */\n      0x01\n      0x00\n      swap1\n      sload\n      swap1\n      0x0100\n      exp\n      swap1\n      div\n      0xffffffffffffffffffffffffffffffffffffffff\n      and\n        /* \"contracts/Stakingv1.sol\":1561:1581  rewardToken.transfer */\n      0xffffffffffffffffffffffffffffffffffffffff\n      and\n      0xa9059cbb\n        /* \"contracts/Stakingv1.sol\":1582:1592  msg.sender */\n      caller\n        /* \"contracts/Stakingv1.sol\":1594:1600  reward */\n      dup4\n        /* \"contracts/Stakingv1.sol\":1561:1601  rewardToken.transfer(msg.sender, reward) */\n      mload(0x40)\n      dup4\n      0xffffffff\n      and\n      0xe0\n      shl\n      dup2\n      mstore\n      0x04\n      add\n      tag_67\n      swap3\n      swap2\n      swap1\n      tag_58\n      jump\t// in\n    tag_67:\n      0x20\n      mload(0x40)\n      dup1\n      dup4\n      sub\n      dup2\n      0x00\n      dup8\n      gas\n      call\n      iszero\n      dup1\n      iszero\n      tag_69\n      jumpi\n      returndatasize\n      0x00\n      dup1\n      returndatacopy\n      revert(0x00, returndatasize)\n    tag_69:\n      pop\n      pop\n      pop\n      pop\n      mload(0x40)\n      returndatasize\n      not(0x1f)\n      0x1f\n      dup3\n      add\n      and\n      dup3\n      add\n      dup1\n      0x40\n      mstore\n      pop\n      dup2\n      add\n      swap1\n      tag_70\n      swap2\n      swap1\n      tag_62\n      jump\t// in\n    tag_70:\n      pop\n        /* \"contracts/Stakingv1.sol\":1417:1634  {... */\n      pop\n        /* \"contracts/Stakingv1.sol\":1386:1634  function claimRewards() public {... */\n      jump\t// out\n        /* \"contracts/Stakingv1.sol\":219:268  mapping(address => uint256) public stakingBalance */\n    tag_23:\n      mstore(0x20, 0x02)\n      dup1\n      0x00\n      mstore\n      keccak256(0x00, 0x40)\n      0x00\n      swap2\n      pop\n      swap1\n      pop\n      sload\n      dup2\n      jump\t// out\n        /* \"contracts/Stakingv1.sol\":275:323  mapping(address => uint256) public rewardBalance */\n    tag_28:\n      mstore(0x20, 0x03)\n      dup1\n      0x00\n      mstore\n      keccak256(0x00, 0x40)\n      0x00\n      swap2\n      pop\n      swap1\n      pop\n      sload\n      dup2\n      jump\t// out\n        /* \"contracts/Stakingv1.sol\":390:433  uint256 public constant MIN_REWARD_RATE = 1 */\n    tag_31:\n        /* \"contracts/Stakingv1.sol\":432:433  1 */\n      0x01\n        /* \"contracts/Stakingv1.sol\":390:433  uint256 public constant MIN_REWARD_RATE = 1 */\n      dup2\n      jump\t// out\n        /* \"contracts/Stakingv1.sol\":447:490  uint256 public constant MAX_REWARD_RATE = 7 */\n    tag_34:\n        /* \"contracts/Stakingv1.sol\":489:490  7 */\n      0x07\n        /* \"contracts/Stakingv1.sol\":447:490  uint256 public constant MAX_REWARD_RATE = 7 */\n      dup2\n      jump\t// out\n        /* \"contracts/Stakingv1.sol\":152:178  IERC20 public stakingToken */\n    tag_37:\n      0x00\n      dup1\n      sload\n      swap1\n      0x0100\n      exp\n      swap1\n      div\n      0xffffffffffffffffffffffffffffffffffffffff\n      and\n      dup2\n      jump\t// out\n        /* \"contracts/Stakingv1.sol\":653:1009  function stake(uint256 _amount) public {... */\n    tag_42:\n        /* \"contracts/Stakingv1.sol\":721:722  0 */\n      0x00\n        /* \"contracts/Stakingv1.sol\":711:718  _amount */\n      dup2\n        /* \"contracts/Stakingv1.sol\":711:722  _amount > 0 */\n      gt\n        /* \"contracts/Stakingv1.sol\":703:759  require(_amount > 0, \"El monto debe ser mayor que cero\") */\n      tag_72\n      jumpi\n      mload(0x40)\n      0x08c379a000000000000000000000000000000000000000000000000000000000\n      dup2\n      mstore\n      0x04\n      add\n      tag_73\n      swap1\n      tag_74\n      jump\t// in\n    tag_73:\n      mload(0x40)\n      dup1\n      swap2\n      sub\n      swap1\n      revert\n    tag_72:\n        /* \"contracts/Stakingv1.sol\":770:782  stakingToken */\n      0x00\n      dup1\n      sload\n      swap1\n      0x0100\n      exp\n      swap1\n      div\n      0xffffffffffffffffffffffffffffffffffffffff\n      and\n        /* \"contracts/Stakingv1.sol\":770:795  stakingToken.transferFrom */\n      0xffffffffffffffffffffffffffffffffffffffff\n      and\n      0x23b872dd\n        /* \"contracts/Stakingv1.sol\":796:806  msg.sender */\n      caller\n        /* \"contracts/Stakingv1.sol\":816:820  this */\n      address\n        /* \"contracts/Stakingv1.sol\":823:830  _amount */\n      dup5\n        /* \"contracts/Stakingv1.sol\":770:831  stakingToken.transferFrom(msg.sender, address(this), _amount) */\n      mload(0x40)\n      dup5\n      0xffffffff\n      and\n      0xe0\n      shl\n      dup2\n      mstore\n      0x04\n      add\n      tag_75\n      swap4\n      swap3\n      swap2\n      swap1\n      tag_76\n      jump\t// in\n    tag_75:\n      0x20\n      mload(0x40)\n      dup1\n      dup4\n      sub\n      dup2\n      0x00\n      dup8\n      gas\n      call\n      iszero\n      dup1\n      iszero\n      tag_78\n      jumpi\n      returndatasize\n      0x00\n      dup1\n      returndatacopy\n      revert(0x00, returndatasize)\n    tag_78:\n      pop\n      pop\n      pop\n      pop\n      mload(0x40)\n      returndatasize\n      not(0x1f)\n      0x1f\n      dup3\n      add\n      and\n      dup3\n      add\n      dup1\n      0x40\n      mstore\n      pop\n      dup2\n      add\n      swap1\n      tag_79\n      swap2\n      swap1\n      tag_62\n      jump\t// in\n    tag_79:\n      pop\n        /* \"contracts/Stakingv1.sol\":872:879  _amount */\n      dup1\n        /* \"contracts/Stakingv1.sol\":842:856  stakingBalance */\n      0x02\n        /* \"contracts/Stakingv1.sol\":842:868  stakingBalance[msg.sender] */\n      0x00\n        /* \"contracts/Stakingv1.sol\":857:867  msg.sender */\n      caller\n        /* \"contracts/Stakingv1.sol\":842:868  stakingBalance[msg.sender] */\n      0xffffffffffffffffffffffffffffffffffffffff\n      and\n      0xffffffffffffffffffffffffffffffffffffffff\n      and\n      dup2\n      mstore\n      0x20\n      add\n      swap1\n      dup2\n      mstore\n      0x20\n      add\n      0x00\n      keccak256\n      0x00\n        /* \"contracts/Stakingv1.sol\":842:879  stakingBalance[msg.sender] += _amount */\n      dup3\n      dup3\n      sload\n      tag_80\n      swap2\n      swap1\n      tag_81\n      jump\t// in\n    tag_80:\n      swap3\n      pop\n      pop\n      dup2\n      swap1\n      sstore\n      pop\n        /* \"contracts/Stakingv1.sol\":926:927  0 */\n      0x00\n        /* \"contracts/Stakingv1.sol\":894:910  stakingStartTime */\n      0x04\n        /* \"contracts/Stakingv1.sol\":894:922  stakingStartTime[msg.sender] */\n      0x00\n        /* \"contracts/Stakingv1.sol\":911:921  msg.sender */\n      caller\n        /* \"contracts/Stakingv1.sol\":894:922  stakingStartTime[msg.sender] */\n      0xffffffffffffffffffffffffffffffffffffffff\n      and\n      0xffffffffffffffffffffffffffffffffffffffff\n      and\n      dup2\n      mstore\n      0x20\n      add\n      swap1\n      dup2\n      mstore\n      0x20\n      add\n      0x00\n      keccak256\n      sload\n        /* \"contracts/Stakingv1.sol\":894:927  stakingStartTime[msg.sender] == 0 */\n      sub\n        /* \"contracts/Stakingv1.sol\":890:1002  if (stakingStartTime[msg.sender] == 0) {... */\n      tag_82\n      jumpi\n        /* \"contracts/Stakingv1.sol\":975:990  block.timestamp */\n      timestamp\n        /* \"contracts/Stakingv1.sol\":944:960  stakingStartTime */\n      0x04\n        /* \"contracts/Stakingv1.sol\":944:972  stakingStartTime[msg.sender] */\n      0x00\n        /* \"contracts/Stakingv1.sol\":961:971  msg.sender */\n      caller\n        /* \"contracts/Stakingv1.sol\":944:972  stakingStartTime[msg.sender] */\n      0xffffffffffffffffffffffffffffffffffffffff\n      and\n      0xffffffffffffffffffffffffffffffffffffffff\n      and\n      dup2\n      mstore\n      0x20\n      add\n      swap1\n      dup2\n      mstore\n      0x20\n      add\n      0x00\n      keccak256\n        /* \"contracts/Stakingv1.sol\":944:990  stakingStartTime[msg.sender] = block.timestamp */\n      dup2\n      swap1\n      sstore\n      pop\n        /* \"contracts/Stakingv1.sol\":890:1002  if (stakingStartTime[msg.sender] == 0) {... */\n    tag_82:\n        /* \"contracts/Stakingv1.sol\":653:1009  function stake(uint256 _amount) public {... */\n      pop\n      jump\t// out\n        /* \"contracts/Stakingv1.sol\":330:381  mapping(address => uint256) public stakingStartTime */\n    tag_45:\n      mstore(0x20, 0x04)\n      dup1\n      0x00\n      mstore\n      keccak256(0x00, 0x40)\n      0x00\n      swap2\n      pop\n      swap1\n      pop\n      sload\n      dup2\n      jump\t// out\n        /* \"contracts/Stakingv1.sol\":185:210  IERC20 public rewardToken */\n    tag_48:\n      0x01\n      0x00\n      swap1\n      sload\n      swap1\n      0x0100\n      exp\n      swap1\n      div\n      0xffffffffffffffffffffffffffffffffffffffff\n      and\n      dup2\n      jump\t// out\n        /* \"contracts/Stakingv1.sol\":1642:1835  function calculateRewards(address _user) internal view returns (uint256) {... */\n    tag_66:\n        /* \"contracts/Stakingv1.sol\":1706:1713  uint256 */\n      0x00\n        /* \"contracts/Stakingv1.sol\":1726:1744  uint256 rewardRate */\n      dup1\n        /* \"contracts/Stakingv1.sol\":1747:1767  getRewardRate(_user) */\n      tag_84\n        /* \"contracts/Stakingv1.sol\":1761:1766  _user */\n      dup4\n        /* \"contracts/Stakingv1.sol\":1747:1760  getRewardRate */\n      tag_85\n        /* \"contracts/Stakingv1.sol\":1747:1767  getRewardRate(_user) */\n      jump\t// in\n    tag_84:\n        /* \"contracts/Stakingv1.sol\":1726:1767  uint256 rewardRate = getRewardRate(_user) */\n      swap1\n      pop\n        /* \"contracts/Stakingv1.sol\":1824:1827  100 */\n      0x64\n        /* \"contracts/Stakingv1.sol\":1810:1820  rewardRate */\n      dup2\n        /* \"contracts/Stakingv1.sol\":1786:1800  stakingBalance */\n      0x02\n        /* \"contracts/Stakingv1.sol\":1786:1807  stakingBalance[_user] */\n      0x00\n        /* \"contracts/Stakingv1.sol\":1801:1806  _user */\n      dup7\n        /* \"contracts/Stakingv1.sol\":1786:1807  stakingBalance[_user] */\n      0xffffffffffffffffffffffffffffffffffffffff\n      and\n      0xffffffffffffffffffffffffffffffffffffffff\n      and\n      dup2\n      mstore\n      0x20\n      add\n      swap1\n      dup2\n      mstore\n      0x20\n      add\n      0x00\n      keccak256\n      sload\n        /* \"contracts/Stakingv1.sol\":1786:1820  stakingBalance[_user] * rewardRate */\n      tag_86\n      swap2\n      swap1\n      tag_87\n      jump\t// in\n    tag_86:\n        /* \"contracts/Stakingv1.sol\":1785:1827  (stakingBalance[_user] * rewardRate) / 100 */\n      tag_88\n      swap2\n      swap1\n      tag_89\n      jump\t// in\n    tag_88:\n        /* \"contracts/Stakingv1.sol\":1778:1827  return (stakingBalance[_user] * rewardRate) / 100 */\n      swap2\n      pop\n      pop\n        /* \"contracts/Stakingv1.sol\":1642:1835  function calculateRewards(address _user) internal view returns (uint256) {... */\n      swap2\n      swap1\n      pop\n      jump\t// out\n        /* \"contracts/Stakingv1.sol\":1843:2291  function getRewardRate(address _user) internal view returns (uint256) {... */\n    tag_85:\n        /* \"contracts/Stakingv1.sol\":1904:1911  uint256 */\n      0x00\n        /* \"contracts/Stakingv1.sol\":1924:1947  uint256 stakingDuration */\n      dup1\n        /* \"contracts/Stakingv1.sol\":1968:1984  stakingStartTime */\n      0x04\n        /* \"contracts/Stakingv1.sol\":1968:1991  stakingStartTime[_user] */\n      0x00\n        /* \"contracts/Stakingv1.sol\":1985:1990  _user */\n      dup5\n        /* \"contracts/Stakingv1.sol\":1968:1991  stakingStartTime[_user] */\n      0xffffffffffffffffffffffffffffffffffffffff\n      and\n      0xffffffffffffffffffffffffffffffffffffffff\n      and\n      dup2\n      mstore\n      0x20\n      add\n      swap1\n      dup2\n      mstore\n      0x20\n      add\n      0x00\n      keccak256\n      sload\n        /* \"contracts/Stakingv1.sol\":1950:1965  block.timestamp */\n      timestamp\n        /* \"contracts/Stakingv1.sol\":1950:1991  block.timestamp - stakingStartTime[_user] */\n      tag_91\n      swap2\n      swap1\n      tag_56\n      jump\t// in\n    tag_91:\n        /* \"contracts/Stakingv1.sol\":1924:1991  uint256 stakingDuration = block.timestamp - stakingStartTime[_user] */\n      swap1\n      pop\n        /* \"contracts/Stakingv1.sol\":2002:2020  uint256 daysStaked */\n      0x00\n        /* \"contracts/Stakingv1.sol\":2041:2047  1 days */\n      0x015180\n        /* \"contracts/Stakingv1.sol\":2023:2038  stakingDuration */\n      dup3\n        /* \"contracts/Stakingv1.sol\":2023:2047  stakingDuration / 1 days */\n      tag_92\n      swap2\n      swap1\n      tag_89\n      jump\t// in\n    tag_92:\n        /* \"contracts/Stakingv1.sol\":2002:2047  uint256 daysStaked = stakingDuration / 1 days */\n      swap1\n      pop\n        /* \"contracts/Stakingv1.sol\":2078:2080  30 */\n      0x1e\n        /* \"contracts/Stakingv1.sol\":2064:2074  daysStaked */\n      dup2\n        /* \"contracts/Stakingv1.sol\":2064:2080  daysStaked <= 30 */\n      gt\n        /* \"contracts/Stakingv1.sol\":2060:2284  if (daysStaked <= 30) {... */\n      tag_93\n      jumpi\n        /* \"contracts/Stakingv1.sol\":2104:2105  1 */\n      0x01\n        /* \"contracts/Stakingv1.sol\":2097:2105  return 1 */\n      swap3\n      pop\n      pop\n      pop\n      jump(tag_90)\n        /* \"contracts/Stakingv1.sol\":2060:2284  if (daysStaked <= 30) {... */\n    tag_93:\n        /* \"contracts/Stakingv1.sol\":2141:2143  60 */\n      0x3c\n        /* \"contracts/Stakingv1.sol\":2127:2137  daysStaked */\n      dup2\n        /* \"contracts/Stakingv1.sol\":2127:2143  daysStaked <= 60 */\n      gt\n        /* \"contracts/Stakingv1.sol\":2123:2284  if (daysStaked <= 60) {... */\n      tag_95\n      jumpi\n        /* \"contracts/Stakingv1.sol\":2167:2168  3 */\n      0x03\n        /* \"contracts/Stakingv1.sol\":2160:2168  return 3 */\n      swap3\n      pop\n      pop\n      pop\n      jump(tag_90)\n        /* \"contracts/Stakingv1.sol\":2123:2284  if (daysStaked <= 60) {... */\n    tag_95:\n        /* \"contracts/Stakingv1.sol\":2204:2206  90 */\n      0x5a\n        /* \"contracts/Stakingv1.sol\":2190:2200  daysStaked */\n      dup2\n        /* \"contracts/Stakingv1.sol\":2190:2206  daysStaked <= 90 */\n      gt\n        /* \"contracts/Stakingv1.sol\":2186:2284  if (daysStaked <= 90) {... */\n      tag_97\n      jumpi\n        /* \"contracts/Stakingv1.sol\":2230:2231  5 */\n      0x05\n        /* \"contracts/Stakingv1.sol\":2223:2231  return 5 */\n      swap3\n      pop\n      pop\n      pop\n      jump(tag_90)\n        /* \"contracts/Stakingv1.sol\":2186:2284  if (daysStaked <= 90) {... */\n    tag_97:\n        /* \"contracts/Stakingv1.sol\":2271:2272  7 */\n      0x07\n        /* \"contracts/Stakingv1.sol\":2264:2272  return 7 */\n      swap3\n      pop\n      pop\n      pop\n        /* \"contracts/Stakingv1.sol\":1843:2291  function getRewardRate(address _user) internal view returns (uint256) {... */\n    tag_90:\n      swap2\n      swap1\n      pop\n      jump\t// out\n        /* \"#utility.yul\":88:205   */\n    tag_100:\n        /* \"#utility.yul\":197:198   */\n      0x00\n        /* \"#utility.yul\":194:195   */\n      dup1\n        /* \"#utility.yul\":187:199   */\n      revert\n        /* \"#utility.yul\":334:411   */\n    tag_102:\n        /* \"#utility.yul\":371:378   */\n      0x00\n        /* \"#utility.yul\":400:405   */\n      dup2\n        /* \"#utility.yul\":389:405   */\n      swap1\n      pop\n        /* \"#utility.yul\":334:411   */\n      swap2\n      swap1\n      pop\n      jump\t// out\n        /* \"#utility.yul\":417:539   */\n    tag_103:\n        /* \"#utility.yul\":490:514   */\n      tag_132\n        /* \"#utility.yul\":508:513   */\n      dup2\n        /* \"#utility.yul\":490:514   */\n      tag_102\n      jump\t// in\n    tag_132:\n        /* \"#utility.yul\":483:488   */\n      dup2\n        /* \"#utility.yul\":480:515   */\n      eq\n        /* \"#utility.yul\":470:533   */\n      tag_133\n      jumpi\n        /* \"#utility.yul\":529:530   */\n      0x00\n        /* \"#utility.yul\":526:527   */\n      dup1\n        /* \"#utility.yul\":519:531   */\n      revert\n        /* \"#utility.yul\":470:533   */\n    tag_133:\n        /* \"#utility.yul\":417:539   */\n      pop\n      jump\t// out\n        /* \"#utility.yul\":545:684   */\n    tag_104:\n        /* \"#utility.yul\":591:596   */\n      0x00\n        /* \"#utility.yul\":629:635   */\n      dup2\n        /* \"#utility.yul\":616:636   */\n      calldataload\n        /* \"#utility.yul\":607:636   */\n      swap1\n      pop\n        /* \"#utility.yul\":645:678   */\n      tag_135\n        /* \"#utility.yul\":672:677   */\n      dup2\n        /* \"#utility.yul\":645:678   */\n      tag_103\n      jump\t// in\n    tag_135:\n        /* \"#utility.yul\":545:684   */\n      swap3\n      swap2\n      pop\n      pop\n      jump\t// out\n        /* \"#utility.yul\":690:1019   */\n    tag_16:\n        /* \"#utility.yul\":749:755   */\n      0x00\n        /* \"#utility.yul\":798:800   */\n      0x20\n        /* \"#utility.yul\":786:795   */\n      dup3\n        /* \"#utility.yul\":777:784   */\n      dup5\n        /* \"#utility.yul\":773:796   */\n      sub\n        /* \"#utility.yul\":769:801   */\n      slt\n        /* \"#utility.yul\":766:885   */\n      iszero\n      tag_137\n      jumpi\n        /* \"#utility.yul\":804:883   */\n      tag_138\n      tag_100\n      jump\t// in\n    tag_138:\n        /* \"#utility.yul\":766:885   */\n    tag_137:\n        /* \"#utility.yul\":924:925   */\n      0x00\n        /* \"#utility.yul\":949:1002   */\n      tag_139\n        /* \"#utility.yul\":994:1001   */\n      dup5\n        /* \"#utility.yul\":985:991   */\n      dup3\n        /* \"#utility.yul\":974:983   */\n      dup6\n        /* \"#utility.yul\":970:992   */\n      add\n        /* \"#utility.yul\":949:1002   */\n      tag_104\n      jump\t// in\n    tag_139:\n        /* \"#utility.yul\":939:1002   */\n      swap2\n      pop\n        /* \"#utility.yul\":895:1012   */\n      pop\n        /* \"#utility.yul\":690:1019   */\n      swap3\n      swap2\n      pop\n      pop\n      jump\t// out\n        /* \"#utility.yul\":1025:1151   */\n    tag_105:\n        /* \"#utility.yul\":1062:1069   */\n      0x00\n        /* \"#utility.yul\":1102:1144   */\n      0xffffffffffffffffffffffffffffffffffffffff\n        /* \"#utility.yul\":1095:1100   */\n      dup3\n        /* \"#utility.yul\":1091:1145   */\n      and\n        /* \"#utility.yul\":1080:1145   */\n      swap1\n      pop\n        /* \"#utility.yul\":1025:1151   */\n      swap2\n      swap1\n      pop\n      jump\t// out\n        /* \"#utility.yul\":1157:1253   */\n    tag_106:\n        /* \"#utility.yul\":1194:1201   */\n      0x00\n        /* \"#utility.yul\":1223:1247   */\n      tag_142\n        /* \"#utility.yul\":1241:1246   */\n      dup3\n        /* \"#utility.yul\":1223:1247   */\n      tag_105\n      jump\t// in\n    tag_142:\n        /* \"#utility.yul\":1212:1247   */\n      swap1\n      pop\n        /* \"#utility.yul\":1157:1253   */\n      swap2\n      swap1\n      pop\n      jump\t// out\n        /* \"#utility.yul\":1259:1381   */\n    tag_107:\n        /* \"#utility.yul\":1332:1356   */\n      tag_144\n        /* \"#utility.yul\":1350:1355   */\n      dup2\n        /* \"#utility.yul\":1332:1356   */\n      tag_106\n      jump\t// in\n    tag_144:\n        /* \"#utility.yul\":1325:1330   */\n      dup2\n        /* \"#utility.yul\":1322:1357   */\n      eq\n        /* \"#utility.yul\":1312:1375   */\n      tag_145\n      jumpi\n        /* \"#utility.yul\":1371:1372   */\n      0x00\n        /* \"#utility.yul\":1368:1369   */\n      dup1\n        /* \"#utility.yul\":1361:1373   */\n      revert\n        /* \"#utility.yul\":1312:1375   */\n    tag_145:\n        /* \"#utility.yul\":1259:1381   */\n      pop\n      jump\t// out\n        /* \"#utility.yul\":1387:1526   */\n    tag_108:\n        /* \"#utility.yul\":1433:1438   */\n      0x00\n        /* \"#utility.yul\":1471:1477   */\n      dup2\n        /* \"#utility.yul\":1458:1478   */\n      calldataload\n        /* \"#utility.yul\":1449:1478   */\n      swap1\n      pop\n        /* \"#utility.yul\":1487:1520   */\n      tag_147\n        /* \"#utility.yul\":1514:1519   */\n      dup2\n        /* \"#utility.yul\":1487:1520   */\n      tag_107\n      jump\t// in\n    tag_147:\n        /* \"#utility.yul\":1387:1526   */\n      swap3\n      swap2\n      pop\n      pop\n      jump\t// out\n        /* \"#utility.yul\":1532:1861   */\n    tag_22:\n        /* \"#utility.yul\":1591:1597   */\n      0x00\n        /* \"#utility.yul\":1640:1642   */\n      0x20\n        /* \"#utility.yul\":1628:1637   */\n      dup3\n        /* \"#utility.yul\":1619:1626   */\n      dup5\n        /* \"#utility.yul\":1615:1638   */\n      sub\n        /* \"#utility.yul\":1611:1643   */\n      slt\n        /* \"#utility.yul\":1608:1727   */\n      iszero\n      tag_149\n      jumpi\n        /* \"#utility.yul\":1646:1725   */\n      tag_150\n      tag_100\n      jump\t// in\n    tag_150:\n        /* \"#utility.yul\":1608:1727   */\n    tag_149:\n        /* \"#utility.yul\":1766:1767   */\n      0x00\n        /* \"#utility.yul\":1791:1844   */\n      tag_151\n        /* \"#utility.yul\":1836:1843   */\n      dup5\n        /* \"#utility.yul\":1827:1833   */\n      dup3\n        /* \"#utility.yul\":1816:1825   */\n      dup6\n        /* \"#utility.yul\":1812:1834   */\n      add\n        /* \"#utility.yul\":1791:1844   */\n      tag_108\n      jump\t// in\n    tag_151:\n        /* \"#utility.yul\":1781:1844   */\n      swap2\n      pop\n        /* \"#utility.yul\":1737:1854   */\n      pop\n        /* \"#utility.yul\":1532:1861   */\n      swap3\n      swap2\n      pop\n      pop\n      jump\t// out\n        /* \"#utility.yul\":1867:1985   */\n    tag_109:\n        /* \"#utility.yul\":1954:1978   */\n      tag_153\n        /* \"#utility.yul\":1972:1977   */\n      dup2\n        /* \"#utility.yul\":1954:1978   */\n      tag_102\n      jump\t// in\n    tag_153:\n        /* \"#utility.yul\":1949:1952   */\n      dup3\n        /* \"#utility.yul\":1942:1979   */\n      mstore\n        /* \"#utility.yul\":1867:1985   */\n      pop\n      pop\n      jump\t// out\n        /* \"#utility.yul\":1991:2213   */\n    tag_25:\n        /* \"#utility.yul\":2084:2088   */\n      0x00\n        /* \"#utility.yul\":2122:2124   */\n      0x20\n        /* \"#utility.yul\":2111:2120   */\n      dup3\n        /* \"#utility.yul\":2107:2125   */\n      add\n        /* \"#utility.yul\":2099:2125   */\n      swap1\n      pop\n        /* \"#utility.yul\":2135:2206   */\n      tag_155\n        /* \"#utility.yul\":2203:2204   */\n      0x00\n        /* \"#utility.yul\":2192:2201   */\n      dup4\n        /* \"#utility.yul\":2188:2205   */\n      add\n        /* \"#utility.yul\":2179:2185   */\n      dup5\n        /* \"#utility.yul\":2135:2206   */\n      tag_109\n      jump\t// in\n    tag_155:\n        /* \"#utility.yul\":1991:2213   */\n      swap3\n      swap2\n      pop\n      pop\n      jump\t// out\n        /* \"#utility.yul\":2219:2279   */\n    tag_110:\n        /* \"#utility.yul\":2247:2250   */\n      0x00\n        /* \"#utility.yul\":2268:2273   */\n      dup2\n        /* \"#utility.yul\":2261:2273   */\n      swap1\n      pop\n        /* \"#utility.yul\":2219:2279   */\n      swap2\n      swap1\n      pop\n      jump\t// out\n        /* \"#utility.yul\":2285:2427   */\n    tag_111:\n        /* \"#utility.yul\":2335:2344   */\n      0x00\n        /* \"#utility.yul\":2368:2421   */\n      tag_158\n        /* \"#utility.yul\":2386:2420   */\n      tag_159\n        /* \"#utility.yul\":2395:2419   */\n      tag_160\n        /* \"#utility.yul\":2413:2418   */\n      dup5\n        /* \"#utility.yul\":2395:2419   */\n      tag_105\n      jump\t// in\n    tag_160:\n        /* \"#utility.yul\":2386:2420   */\n      tag_110\n      jump\t// in\n    tag_159:\n        /* \"#utility.yul\":2368:2421   */\n      tag_105\n      jump\t// in\n    tag_158:\n        /* \"#utility.yul\":2355:2421   */\n      swap1\n      pop\n        /* \"#utility.yul\":2285:2427   */\n      swap2\n      swap1\n      pop\n      jump\t// out\n        /* \"#utility.yul\":2433:2559   */\n    tag_112:\n        /* \"#utility.yul\":2483:2492   */\n      0x00\n        /* \"#utility.yul\":2516:2553   */\n      tag_162\n        /* \"#utility.yul\":2547:2552   */\n      dup3\n        /* \"#utility.yul\":2516:2553   */\n      tag_111\n      jump\t// in\n    tag_162:\n        /* \"#utility.yul\":2503:2553   */\n      swap1\n      pop\n        /* \"#utility.yul\":2433:2559   */\n      swap2\n      swap1\n      pop\n      jump\t// out\n        /* \"#utility.yul\":2565:2704   */\n    tag_113:\n        /* \"#utility.yul\":2628:2637   */\n      0x00\n        /* \"#utility.yul\":2661:2698   */\n      tag_164\n        /* \"#utility.yul\":2692:2697   */\n      dup3\n        /* \"#utility.yul\":2661:2698   */\n      tag_112\n      jump\t// in\n    tag_164:\n        /* \"#utility.yul\":2648:2698   */\n      swap1\n      pop\n        /* \"#utility.yul\":2565:2704   */\n      swap2\n      swap1\n      pop\n      jump\t// out\n        /* \"#utility.yul\":2710:2867   */\n    tag_114:\n        /* \"#utility.yul\":2810:2860   */\n      tag_166\n        /* \"#utility.yul\":2854:2859   */\n      dup2\n        /* \"#utility.yul\":2810:2860   */\n      tag_113\n      jump\t// in\n    tag_166:\n        /* \"#utility.yul\":2805:2808   */\n      dup3\n        /* \"#utility.yul\":2798:2861   */\n      mstore\n        /* \"#utility.yul\":2710:2867   */\n      pop\n      pop\n      jump\t// out\n        /* \"#utility.yul\":2873:3121   */\n    tag_39:\n        /* \"#utility.yul\":2979:2983   */\n      0x00\n        /* \"#utility.yul\":3017:3019   */\n      0x20\n        /* \"#utility.yul\":3006:3015   */\n      dup3\n        /* \"#utility.yul\":3002:3020   */\n      add\n        /* \"#utility.yul\":2994:3020   */\n      swap1\n      pop\n        /* \"#utility.yul\":3030:3114   */\n      tag_168\n        /* \"#utility.yul\":3111:3112   */\n      0x00\n        /* \"#utility.yul\":3100:3109   */\n      dup4\n        /* \"#utility.yul\":3096:3113   */\n      add\n        /* \"#utility.yul\":3087:3093   */\n      dup5\n        /* \"#utility.yul\":3030:3114   */\n      tag_114\n      jump\t// in\n    tag_168:\n        /* \"#utility.yul\":2873:3121   */\n      swap3\n      swap2\n      pop\n      pop\n      jump\t// out\n        /* \"#utility.yul\":3127:3296   */\n    tag_115:\n        /* \"#utility.yul\":3211:3222   */\n      0x00\n        /* \"#utility.yul\":3245:3251   */\n      dup3\n        /* \"#utility.yul\":3240:3243   */\n      dup3\n        /* \"#utility.yul\":3233:3252   */\n      mstore\n        /* \"#utility.yul\":3285:3289   */\n      0x20\n        /* \"#utility.yul\":3280:3283   */\n      dup3\n        /* \"#utility.yul\":3276:3290   */\n      add\n        /* \"#utility.yul\":3261:3290   */\n      swap1\n      pop\n        /* \"#utility.yul\":3127:3296   */\n      swap3\n      swap2\n      pop\n      pop\n      jump\t// out\n        /* \"#utility.yul\":3302:3470   */\n    tag_116:\n        /* \"#utility.yul\":3442:3462   */\n      0x53616c646f20696e737566696369656e74650000000000000000000000000000\n        /* \"#utility.yul\":3438:3439   */\n      0x00\n        /* \"#utility.yul\":3430:3436   */\n      dup3\n        /* \"#utility.yul\":3426:3440   */\n      add\n        /* \"#utility.yul\":3419:3463   */\n      mstore\n        /* \"#utility.yul\":3302:3470   */\n      pop\n      jump\t// out\n        /* \"#utility.yul\":3476:3842   */\n    tag_117:\n        /* \"#utility.yul\":3618:3621   */\n      0x00\n        /* \"#utility.yul\":3639:3706   */\n      tag_172\n        /* \"#utility.yul\":3703:3705   */\n      0x12\n        /* \"#utility.yul\":3698:3701   */\n      dup4\n        /* \"#utility.yul\":3639:3706   */\n      tag_115\n      jump\t// in\n    tag_172:\n        /* \"#utility.yul\":3632:3706   */\n      swap2\n      pop\n        /* \"#utility.yul\":3715:3808   */\n      tag_173\n        /* \"#utility.yul\":3804:3807   */\n      dup3\n        /* \"#utility.yul\":3715:3808   */\n      tag_116\n      jump\t// in\n    tag_173:\n        /* \"#utility.yul\":3833:3835   */\n      0x20\n        /* \"#utility.yul\":3828:3831   */\n      dup3\n        /* \"#utility.yul\":3824:3836   */\n      add\n        /* \"#utility.yul\":3817:3836   */\n      swap1\n      pop\n        /* \"#utility.yul\":3476:3842   */\n      swap2\n      swap1\n      pop\n      jump\t// out\n        /* \"#utility.yul\":3848:4267   */\n    tag_53:\n        /* \"#utility.yul\":4014:4018   */\n      0x00\n        /* \"#utility.yul\":4052:4054   */\n      0x20\n        /* \"#utility.yul\":4041:4050   */\n      dup3\n        /* \"#utility.yul\":4037:4055   */\n      add\n        /* \"#utility.yul\":4029:4055   */\n      swap1\n      pop\n        /* \"#utility.yul\":4101:4110   */\n      dup2\n        /* \"#utility.yul\":4095:4099   */\n      dup2\n        /* \"#utility.yul\":4091:4111   */\n      sub\n        /* \"#utility.yul\":4087:4088   */\n      0x00\n        /* \"#utility.yul\":4076:4085   */\n      dup4\n        /* \"#utility.yul\":4072:4089   */\n      add\n        /* \"#utility.yul\":4065:4112   */\n      mstore\n        /* \"#utility.yul\":4129:4260   */\n      tag_175\n        /* \"#utility.yul\":4255:4259   */\n      dup2\n        /* \"#utility.yul\":4129:4260   */\n      tag_117\n      jump\t// in\n    tag_175:\n        /* \"#utility.yul\":4121:4260   */\n      swap1\n      pop\n        /* \"#utility.yul\":3848:4267   */\n      swap2\n      swap1\n      pop\n      jump\t// out\n        /* \"#utility.yul\":4273:4453   */\n    tag_118:\n        /* \"#utility.yul\":4321:4398   */\n      0x4e487b7100000000000000000000000000000000000000000000000000000000\n        /* \"#utility.yul\":4318:4319   */\n      0x00\n        /* \"#utility.yul\":4311:4399   */\n      mstore\n        /* \"#utility.yul\":4418:4422   */\n      0x11\n        /* \"#utility.yul\":4415:4416   */\n      0x04\n        /* \"#utility.yul\":4408:4423   */\n      mstore\n        /* \"#utility.yul\":4442:4446   */\n      0x24\n        /* \"#utility.yul\":4439:4440   */\n      0x00\n        /* \"#utility.yul\":4432:4447   */\n      revert\n        /* \"#utility.yul\":4459:4653   */\n    tag_56:\n        /* \"#utility.yul\":4499:4503   */\n      0x00\n        /* \"#utility.yul\":4519:4539   */\n      tag_178\n        /* \"#utility.yul\":4537:4538   */\n      dup3\n        /* \"#utility.yul\":4519:4539   */\n      tag_102\n      jump\t// in\n    tag_178:\n        /* \"#utility.yul\":4514:4539   */\n      swap2\n      pop\n        /* \"#utility.yul\":4553:4573   */\n      tag_179\n        /* \"#utility.yul\":4571:4572   */\n      dup4\n        /* \"#utility.yul\":4553:4573   */\n      tag_102\n      jump\t// in\n    tag_179:\n        /* \"#utility.yul\":4548:4573   */\n      swap3\n      pop\n        /* \"#utility.yul\":4597:4598   */\n      dup3\n        /* \"#utility.yul\":4594:4595   */\n      dup3\n        /* \"#utility.yul\":4590:4599   */\n      sub\n        /* \"#utility.yul\":4582:4599   */\n      swap1\n      pop\n        /* \"#utility.yul\":4621:4622   */\n      dup2\n        /* \"#utility.yul\":4615:4619   */\n      dup2\n        /* \"#utility.yul\":4612:4623   */\n      gt\n        /* \"#utility.yul\":4609:4646   */\n      iszero\n      tag_180\n      jumpi\n        /* \"#utility.yul\":4626:4644   */\n      tag_181\n      tag_118\n      jump\t// in\n    tag_181:\n        /* \"#utility.yul\":4609:4646   */\n    tag_180:\n        /* \"#utility.yul\":4459:4653   */\n      swap3\n      swap2\n      pop\n      pop\n      jump\t// out\n        /* \"#utility.yul\":4659:4777   */\n    tag_119:\n        /* \"#utility.yul\":4746:4770   */\n      tag_183\n        /* \"#utility.yul\":4764:4769   */\n      dup2\n        /* \"#utility.yul\":4746:4770   */\n      tag_106\n      jump\t// in\n    tag_183:\n        /* \"#utility.yul\":4741:4744   */\n      dup3\n        /* \"#utility.yul\":4734:4771   */\n      mstore\n        /* \"#utility.yul\":4659:4777   */\n      pop\n      pop\n      jump\t// out\n        /* \"#utility.yul\":4783:5115   */\n    tag_58:\n        /* \"#utility.yul\":4904:4908   */\n      0x00\n        /* \"#utility.yul\":4942:4944   */\n      0x40\n        /* \"#utility.yul\":4931:4940   */\n      dup3\n        /* \"#utility.yul\":4927:4945   */\n      add\n        /* \"#utility.yul\":4919:4945   */\n      swap1\n      pop\n        /* \"#utility.yul\":4955:5026   */\n      tag_185\n        /* \"#utility.yul\":5023:5024   */\n      0x00\n        /* \"#utility.yul\":5012:5021   */\n      dup4\n        /* \"#utility.yul\":5008:5025   */\n      add\n        /* \"#utility.yul\":4999:5005   */\n      dup6\n        /* \"#utility.yul\":4955:5026   */\n      tag_119\n      jump\t// in\n    tag_185:\n        /* \"#utility.yul\":5036:5108   */\n      tag_186\n        /* \"#utility.yul\":5104:5106   */\n      0x20\n        /* \"#utility.yul\":5093:5102   */\n      dup4\n        /* \"#utility.yul\":5089:5107   */\n      add\n        /* \"#utility.yul\":5080:5086   */\n      dup5\n        /* \"#utility.yul\":5036:5108   */\n      tag_109\n      jump\t// in\n    tag_186:\n        /* \"#utility.yul\":4783:5115   */\n      swap4\n      swap3\n      pop\n      pop\n      pop\n      jump\t// out\n        /* \"#utility.yul\":5121:5211   */\n    tag_120:\n        /* \"#utility.yul\":5155:5162   */\n      0x00\n        /* \"#utility.yul\":5198:5203   */\n      dup2\n        /* \"#utility.yul\":5191:5204   */\n      iszero\n        /* \"#utility.yul\":5184:5205   */\n      iszero\n        /* \"#utility.yul\":5173:5205   */\n      swap1\n      pop\n        /* \"#utility.yul\":5121:5211   */\n      swap2\n      swap1\n      pop\n      jump\t// out\n        /* \"#utility.yul\":5217:5333   */\n    tag_121:\n        /* \"#utility.yul\":5287:5308   */\n      tag_189\n        /* \"#utility.yul\":5302:5307   */\n      dup2\n        /* \"#utility.yul\":5287:5308   */\n      tag_120\n      jump\t// in\n    tag_189:\n        /* \"#utility.yul\":5280:5285   */\n      dup2\n        /* \"#utility.yul\":5277:5309   */\n      eq\n        /* \"#utility.yul\":5267:5327   */\n      tag_190\n      jumpi\n        /* \"#utility.yul\":5323:5324   */\n      0x00\n        /* \"#utility.yul\":5320:5321   */\n      dup1\n        /* \"#utility.yul\":5313:5325   */\n      revert\n        /* \"#utility.yul\":5267:5327   */\n    tag_190:\n        /* \"#utility.yul\":5217:5333   */\n      pop\n      jump\t// out\n        /* \"#utility.yul\":5339:5476   */\n    tag_122:\n        /* \"#utility.yul\":5393:5398   */\n      0x00\n        /* \"#utility.yul\":5424:5430   */\n      dup2\n        /* \"#utility.yul\":5418:5431   */\n      mload\n        /* \"#utility.yul\":5409:5431   */\n      swap1\n      pop\n        /* \"#utility.yul\":5440:5470   */\n      tag_192\n        /* \"#utility.yul\":5464:5469   */\n      dup2\n        /* \"#utility.yul\":5440:5470   */\n      tag_121\n      jump\t// in\n    tag_192:\n        /* \"#utility.yul\":5339:5476   */\n      swap3\n      swap2\n      pop\n      pop\n      jump\t// out\n        /* \"#utility.yul\":5482:5827   */\n    tag_62:\n        /* \"#utility.yul\":5549:5555   */\n      0x00\n        /* \"#utility.yul\":5598:5600   */\n      0x20\n        /* \"#utility.yul\":5586:5595   */\n      dup3\n        /* \"#utility.yul\":5577:5584   */\n      dup5\n        /* \"#utility.yul\":5573:5596   */\n      sub\n        /* \"#utility.yul\":5569:5601   */\n      slt\n        /* \"#utility.yul\":5566:5685   */\n      iszero\n      tag_194\n      jumpi\n        /* \"#utility.yul\":5604:5683   */\n      tag_195\n      tag_100\n      jump\t// in\n    tag_195:\n        /* \"#utility.yul\":5566:5685   */\n    tag_194:\n        /* \"#utility.yul\":5724:5725   */\n      0x00\n        /* \"#utility.yul\":5749:5810   */\n      tag_196\n        /* \"#utility.yul\":5802:5809   */\n      dup5\n        /* \"#utility.yul\":5793:5799   */\n      dup3\n        /* \"#utility.yul\":5782:5791   */\n      dup6\n        /* \"#utility.yul\":5778:5800   */\n      add\n        /* \"#utility.yul\":5749:5810   */\n      tag_122\n      jump\t// in\n    tag_196:\n        /* \"#utility.yul\":5739:5810   */\n      swap2\n      pop\n        /* \"#utility.yul\":5695:5820   */\n      pop\n        /* \"#utility.yul\":5482:5827   */\n      swap3\n      swap2\n      pop\n      pop\n      jump\t// out\n        /* \"#utility.yul\":5833:6015   */\n    tag_123:\n        /* \"#utility.yul\":5973:6007   */\n      0x456c206d6f6e746f206465626520736572206d61796f7220717565206365726f\n        /* \"#utility.yul\":5969:5970   */\n      0x00\n        /* \"#utility.yul\":5961:5967   */\n      dup3\n        /* \"#utility.yul\":5957:5971   */\n      add\n        /* \"#utility.yul\":5950:6008   */\n      mstore\n        /* \"#utility.yul\":5833:6015   */\n      pop\n      jump\t// out\n        /* \"#utility.yul\":6021:6387   */\n    tag_124:\n        /* \"#utility.yul\":6163:6166   */\n      0x00\n        /* \"#utility.yul\":6184:6251   */\n      tag_199\n        /* \"#utility.yul\":6248:6250   */\n      0x20\n        /* \"#utility.yul\":6243:6246   */\n      dup4\n        /* \"#utility.yul\":6184:6251   */\n      tag_115\n      jump\t// in\n    tag_199:\n        /* \"#utility.yul\":6177:6251   */\n      swap2\n      pop\n        /* \"#utility.yul\":6260:6353   */\n      tag_200\n        /* \"#utility.yul\":6349:6352   */\n      dup3\n        /* \"#utility.yul\":6260:6353   */\n      tag_123\n      jump\t// in\n    tag_200:\n        /* \"#utility.yul\":6378:6380   */\n      0x20\n        /* \"#utility.yul\":6373:6376   */\n      dup3\n        /* \"#utility.yul\":6369:6381   */\n      add\n        /* \"#utility.yul\":6362:6381   */\n      swap1\n      pop\n        /* \"#utility.yul\":6021:6387   */\n      swap2\n      swap1\n      pop\n      jump\t// out\n        /* \"#utility.yul\":6393:6812   */\n    tag_74:\n        /* \"#utility.yul\":6559:6563   */\n      0x00\n        /* \"#utility.yul\":6597:6599   */\n      0x20\n        /* \"#utility.yul\":6586:6595   */\n      dup3\n        /* \"#utility.yul\":6582:6600   */\n      add\n        /* \"#utility.yul\":6574:6600   */\n      swap1\n      pop\n        /* \"#utility.yul\":6646:6655   */\n      dup2\n        /* \"#utility.yul\":6640:6644   */\n      dup2\n        /* \"#utility.yul\":6636:6656   */\n      sub\n        /* \"#utility.yul\":6632:6633   */\n      0x00\n        /* \"#utility.yul\":6621:6630   */\n      dup4\n        /* \"#utility.yul\":6617:6634   */\n      add\n        /* \"#utility.yul\":6610:6657   */\n      mstore\n        /* \"#utility.yul\":6674:6805   */\n      tag_202\n        /* \"#utility.yul\":6800:6804   */\n      dup2\n        /* \"#utility.yul\":6674:6805   */\n      tag_124\n      jump\t// in\n    tag_202:\n        /* \"#utility.yul\":6666:6805   */\n      swap1\n      pop\n        /* \"#utility.yul\":6393:6812   */\n      swap2\n      swap1\n      pop\n      jump\t// out\n        /* \"#utility.yul\":6818:7260   */\n    tag_76:\n        /* \"#utility.yul\":6967:6971   */\n      0x00\n        /* \"#utility.yul\":7005:7007   */\n      0x60\n        /* \"#utility.yul\":6994:7003   */\n      dup3\n        /* \"#utility.yul\":6990:7008   */\n      add\n        /* \"#utility.yul\":6982:7008   */\n      swap1\n      pop\n        /* \"#utility.yul\":7018:7089   */\n      tag_204\n        /* \"#utility.yul\":7086:7087   */\n      0x00\n        /* \"#utility.yul\":7075:7084   */\n      dup4\n        /* \"#utility.yul\":7071:7088   */\n      add\n        /* \"#utility.yul\":7062:7068   */\n      dup7\n        /* \"#utility.yul\":7018:7089   */\n      tag_119\n      jump\t// in\n    tag_204:\n        /* \"#utility.yul\":7099:7171   */\n      tag_205\n        /* \"#utility.yul\":7167:7169   */\n      0x20\n        /* \"#utility.yul\":7156:7165   */\n      dup4\n        /* \"#utility.yul\":7152:7170   */\n      add\n        /* \"#utility.yul\":7143:7149   */\n      dup6\n        /* \"#utility.yul\":7099:7171   */\n      tag_119\n      jump\t// in\n    tag_205:\n        /* \"#utility.yul\":7181:7253   */\n      tag_206\n        /* \"#utility.yul\":7249:7251   */\n      0x40\n        /* \"#utility.yul\":7238:7247   */\n      dup4\n        /* \"#utility.yul\":7234:7252   */\n      add\n        /* \"#utility.yul\":7225:7231   */\n      dup5\n        /* \"#utility.yul\":7181:7253   */\n      tag_109\n      jump\t// in\n    tag_206:\n        /* \"#utility.yul\":6818:7260   */\n      swap5\n      swap4\n      pop\n      pop\n      pop\n      pop\n      jump\t// out\n        /* \"#utility.yul\":7266:7457   */\n    tag_81:\n        /* \"#utility.yul\":7306:7309   */\n      0x00\n        /* \"#utility.yul\":7325:7345   */\n      tag_208\n        /* \"#utility.yul\":7343:7344   */\n      dup3\n        /* \"#utility.yul\":7325:7345   */\n      tag_102\n      jump\t// in\n    tag_208:\n        /* \"#utility.yul\":7320:7345   */\n      swap2\n      pop\n        /* \"#utility.yul\":7359:7379   */\n      tag_209\n        /* \"#utility.yul\":7377:7378   */\n      dup4\n        /* \"#utility.yul\":7359:7379   */\n      tag_102\n      jump\t// in\n    tag_209:\n        /* \"#utility.yul\":7354:7379   */\n      swap3\n      pop\n        /* \"#utility.yul\":7402:7403   */\n      dup3\n        /* \"#utility.yul\":7399:7400   */\n      dup3\n        /* \"#utility.yul\":7395:7404   */\n      add\n        /* \"#utility.yul\":7388:7404   */\n      swap1\n      pop\n        /* \"#utility.yul\":7423:7426   */\n      dup1\n        /* \"#utility.yul\":7420:7421   */\n      dup3\n        /* \"#utility.yul\":7417:7427   */\n      gt\n        /* \"#utility.yul\":7414:7450   */\n      iszero\n      tag_210\n      jumpi\n        /* \"#utility.yul\":7430:7448   */\n      tag_211\n      tag_118\n      jump\t// in\n    tag_211:\n        /* \"#utility.yul\":7414:7450   */\n    tag_210:\n        /* \"#utility.yul\":7266:7457   */\n      swap3\n      swap2\n      pop\n      pop\n      jump\t// out\n        /* \"#utility.yul\":7463:7873   */\n    tag_87:\n        /* \"#utility.yul\":7503:7510   */\n      0x00\n        /* \"#utility.yul\":7526:7546   */\n      tag_213\n        /* \"#utility.yul\":7544:7545   */\n      dup3\n        /* \"#utility.yul\":7526:7546   */\n      tag_102\n      jump\t// in\n    tag_213:\n        /* \"#utility.yul\":7521:7546   */\n      swap2\n      pop\n        /* \"#utility.yul\":7560:7580   */\n      tag_214\n        /* \"#utility.yul\":7578:7579   */\n      dup4\n        /* \"#utility.yul\":7560:7580   */\n      tag_102\n      jump\t// in\n    tag_214:\n        /* \"#utility.yul\":7555:7580   */\n      swap3\n      pop\n        /* \"#utility.yul\":7615:7616   */\n      dup3\n        /* \"#utility.yul\":7612:7613   */\n      dup3\n        /* \"#utility.yul\":7608:7617   */\n      mul\n        /* \"#utility.yul\":7637:7667   */\n      tag_215\n        /* \"#utility.yul\":7655:7666   */\n      dup2\n        /* \"#utility.yul\":7637:7667   */\n      tag_102\n      jump\t// in\n    tag_215:\n        /* \"#utility.yul\":7626:7667   */\n      swap2\n      pop\n        /* \"#utility.yul\":7816:7817   */\n      dup3\n        /* \"#utility.yul\":7807:7814   */\n      dup3\n        /* \"#utility.yul\":7803:7818   */\n      div\n        /* \"#utility.yul\":7800:7801   */\n      dup5\n        /* \"#utility.yul\":7797:7819   */\n      eq\n        /* \"#utility.yul\":7777:7778   */\n      dup4\n        /* \"#utility.yul\":7770:7779   */\n      iszero\n        /* \"#utility.yul\":7750:7833   */\n      or\n        /* \"#utility.yul\":7727:7866   */\n      tag_216\n      jumpi\n        /* \"#utility.yul\":7846:7864   */\n      tag_217\n      tag_118\n      jump\t// in\n    tag_217:\n        /* \"#utility.yul\":7727:7866   */\n    tag_216:\n        /* \"#utility.yul\":7511:7873   */\n      pop\n        /* \"#utility.yul\":7463:7873   */\n      swap3\n      swap2\n      pop\n      pop\n      jump\t// out\n        /* \"#utility.yul\":7879:8059   */\n    tag_125:\n        /* \"#utility.yul\":7927:8004   */\n      0x4e487b7100000000000000000000000000000000000000000000000000000000\n        /* \"#utility.yul\":7924:7925   */\n      0x00\n        /* \"#utility.yul\":7917:8005   */\n      mstore\n        /* \"#utility.yul\":8024:8028   */\n      0x12\n        /* \"#utility.yul\":8021:8022   */\n      0x04\n        /* \"#utility.yul\":8014:8029   */\n      mstore\n        /* \"#utility.yul\":8048:8052   */\n      0x24\n        /* \"#utility.yul\":8045:8046   */\n      0x00\n        /* \"#utility.yul\":8038:8053   */\n      revert\n        /* \"#utility.yul\":8065:8250   */\n    tag_89:\n        /* \"#utility.yul\":8105:8106   */\n      0x00\n        /* \"#utility.yul\":8122:8142   */\n      tag_220\n        /* \"#utility.yul\":8140:8141   */\n      dup3\n        /* \"#utility.yul\":8122:8142   */\n      tag_102\n      jump\t// in\n    tag_220:\n        /* \"#utility.yul\":8117:8142   */\n      swap2\n      pop\n        /* \"#utility.yul\":8156:8176   */\n      tag_221\n        /* \"#utility.yul\":8174:8175   */\n      dup4\n        /* \"#utility.yul\":8156:8176   */\n      tag_102\n      jump\t// in\n    tag_221:\n        /* \"#utility.yul\":8151:8176   */\n      swap3\n      pop\n        /* \"#utility.yul\":8195:8196   */\n      dup3\n        /* \"#utility.yul\":8185:8220   */\n      tag_222\n      jumpi\n        /* \"#utility.yul\":8200:8218   */\n      tag_223\n      tag_125\n      jump\t// in\n    tag_223:\n        /* \"#utility.yul\":8185:8220   */\n    tag_222:\n        /* \"#utility.yul\":8242:8243   */\n      dup3\n        /* \"#utility.yul\":8239:8240   */\n      dup3\n        /* \"#utility.yul\":8235:8244   */\n      div\n        /* \"#utility.yul\":8230:8244   */\n      swap1\n      pop\n        /* \"#utility.yul\":8065:8250   */\n      swap3\n      swap2\n      pop\n      pop\n      jump\t// out\n\n    auxdata: 0xa264697066735822122045c55064cb6f18cb7694667e022047a68cd81aada4770b7c5f233ade0b49b00964736f6c634300081a0033\n}\n",
				"bytecode": {
					"linkReferences": {},
					"object": "608060405234801561000f575f80fd5b50604051610e39380380610e3983398181016040528101906100319190610126565b815f806101000a81548173ffffffffffffffffffffffffffffffffffffffff021916908373ffffffffffffffffffffffffffffffffffffffff1602179055508060015f6101000a81548173ffffffffffffffffffffffffffffffffffffffff021916908373ffffffffffffffffffffffffffffffffffffffff1602179055505050610164565b5f80fd5b5f73ffffffffffffffffffffffffffffffffffffffff82169050919050565b5f6100e4826100bb565b9050919050565b5f6100f5826100da565b9050919050565b610105816100eb565b811461010f575f80fd5b50565b5f81519050610120816100fc565b92915050565b5f806040838503121561013c5761013b6100b7565b5b5f61014985828601610112565b925050602061015a85828601610112565b9150509250929050565b610cc8806101715f395ff3fe608060405234801561000f575f80fd5b506004361061009c575f3560e01c8063718dc3c311610064578063718dc3c31461014457806372f702f314610162578063a694fc3a14610180578063d12327301461019c578063f7c618c1146101cc5761009c565b80632e1a7d4d146100a0578063372500ab146100bc57806345bc78ab146100c657806367b40cf7146100f65780636b12686b14610126575b5f80fd5b6100ba60048036038101906100b5919061086a565b6101ea565b005b6100c46103ea565b005b6100e060048036038101906100db91906108ef565b6104d8565b6040516100ed9190610929565b60405180910390f35b610110600480360381019061010b91906108ef565b6104ed565b60405161011d9190610929565b60405180910390f35b61012e610502565b60405161013b9190610929565b60405180910390f35b61014c610507565b6040516101599190610929565b60405180910390f35b61016a61050c565b604051610177919061099d565b60405180910390f35b61019a6004803603810190610195919061086a565b61052f565b005b6101b660048036038101906101b191906108ef565b6106eb565b6040516101c39190610929565b60405180910390f35b6101d4610700565b6040516101e1919061099d565b60405180910390f35b8060025f3373ffffffffffffffffffffffffffffffffffffffff1673ffffffffffffffffffffffffffffffffffffffff1681526020019081526020015f2054101561026a576040517f08c379a000000000000000000000000000000000000000000000000000000000815260040161026190610a10565b60405180910390fd5b6102726103ea565b8060025f3373ffffffffffffffffffffffffffffffffffffffff1673ffffffffffffffffffffffffffffffffffffffff1681526020019081526020015f205f8282546102be9190610a5b565b925050819055505f8054906101000a900473ffffffffffffffffffffffffffffffffffffffff1673ffffffffffffffffffffffffffffffffffffffff1663a9059cbb33836040518363ffffffff1660e01b815260040161031f929190610a9d565b6020604051808303815f875af115801561033b573d5f803e3d5ffd5b505050506040513d601f19601f8201168201806040525081019061035f9190610af9565b505f60025f3373ffffffffffffffffffffffffffffffffffffffff1673ffffffffffffffffffffffffffffffffffffffff1681526020019081526020015f2054036103e7575f60045f3373ffffffffffffffffffffffffffffffffffffffff1673ffffffffffffffffffffffffffffffffffffffff1681526020019081526020015f20819055505b50565b5f6103f433610725565b90505f60035f3373ffffffffffffffffffffffffffffffffffffffff1673ffffffffffffffffffffffffffffffffffffffff1681526020019081526020015f208190555060015f9054906101000a900473ffffffffffffffffffffffffffffffffffffffff1673ffffffffffffffffffffffffffffffffffffffff1663a9059cbb33836040518363ffffffff1660e01b8152600401610494929190610a9d565b6020604051808303815f875af11580156104b0573d5f803e3d5ffd5b505050506040513d601f19601f820116820180604052508101906104d49190610af9565b5050565b6002602052805f5260405f205f915090505481565b6003602052805f5260405f205f915090505481565b600181565b600781565b5f8054906101000a900473ffffffffffffffffffffffffffffffffffffffff1681565b5f8111610571576040517f08c379a000000000000000000000000000000000000000000000000000000000815260040161056890610b6e565b60405180910390fd5b5f8054906101000a900473ffffffffffffffffffffffffffffffffffffffff1673ffffffffffffffffffffffffffffffffffffffff166323b872dd3330846040518463ffffffff1660e01b81526004016105cd93929190610b8c565b6020604051808303815f875af11580156105e9573d5f803e3d5ffd5b505050506040513d601f19601f8201168201806040525081019061060d9190610af9565b508060025f3373ffffffffffffffffffffffffffffffffffffffff1673ffffffffffffffffffffffffffffffffffffffff1681526020019081526020015f205f82825461065a9190610bc1565b925050819055505f60045f3373ffffffffffffffffffffffffffffffffffffffff1673ffffffffffffffffffffffffffffffffffffffff1681526020019081526020015f2054036106e8574260045f3373ffffffffffffffffffffffffffffffffffffffff1673ffffffffffffffffffffffffffffffffffffffff1681526020019081526020015f20819055505b50565b6004602052805f5260405f205f915090505481565b60015f9054906101000a900473ffffffffffffffffffffffffffffffffffffffff1681565b5f806107308361078f565b905060648160025f8673ffffffffffffffffffffffffffffffffffffffff1673ffffffffffffffffffffffffffffffffffffffff1681526020019081526020015f205461077d9190610bf4565b6107879190610c62565b915050919050565b5f8060045f8473ffffffffffffffffffffffffffffffffffffffff1673ffffffffffffffffffffffffffffffffffffffff1681526020019081526020015f2054426107da9190610a5b565b90505f62015180826107ec9190610c62565b9050601e81116108015760019250505061082e565b603c81116108145760039250505061082e565b605a81116108275760059250505061082e565b6007925050505b919050565b5f80fd5b5f819050919050565b61084981610837565b8114610853575f80fd5b50565b5f8135905061086481610840565b92915050565b5f6020828403121561087f5761087e610833565b5b5f61088c84828501610856565b91505092915050565b5f73ffffffffffffffffffffffffffffffffffffffff82169050919050565b5f6108be82610895565b9050919050565b6108ce816108b4565b81146108d8575f80fd5b50565b5f813590506108e9816108c5565b92915050565b5f6020828403121561090457610903610833565b5b5f610911848285016108db565b91505092915050565b61092381610837565b82525050565b5f60208201905061093c5f83018461091a565b92915050565b5f819050919050565b5f61096561096061095b84610895565b610942565b610895565b9050919050565b5f6109768261094b565b9050919050565b5f6109878261096c565b9050919050565b6109978161097d565b82525050565b5f6020820190506109b05f83018461098e565b92915050565b5f82825260208201905092915050565b7f53616c646f20696e737566696369656e746500000000000000000000000000005f82015250565b5f6109fa6012836109b6565b9150610a05826109c6565b602082019050919050565b5f6020820190508181035f830152610a27816109ee565b9050919050565b7f4e487b71000000000000000000000000000000000000000000000000000000005f52601160045260245ffd5b5f610a6582610837565b9150610a7083610837565b9250828203905081811115610a8857610a87610a2e565b5b92915050565b610a97816108b4565b82525050565b5f604082019050610ab05f830185610a8e565b610abd602083018461091a565b9392505050565b5f8115159050919050565b610ad881610ac4565b8114610ae2575f80fd5b50565b5f81519050610af381610acf565b92915050565b5f60208284031215610b0e57610b0d610833565b5b5f610b1b84828501610ae5565b91505092915050565b7f456c206d6f6e746f206465626520736572206d61796f7220717565206365726f5f82015250565b5f610b586020836109b6565b9150610b6382610b24565b602082019050919050565b5f6020820190508181035f830152610b8581610b4c565b9050919050565b5f606082019050610b9f5f830186610a8e565b610bac6020830185610a8e565b610bb9604083018461091a565b949350505050565b5f610bcb82610837565b9150610bd683610837565b9250828201905080821115610bee57610bed610a2e565b5b92915050565b5f610bfe82610837565b9150610c0983610837565b9250828202610c1781610837565b91508282048414831517610c2e57610c2d610a2e565b5b5092915050565b7f4e487b71000000000000000000000000000000000000000000000000000000005f52601260045260245ffd5b5f610c6c82610837565b9150610c7783610837565b925082610c8757610c86610c35565b5b82820490509291505056fea264697066735822122045c55064cb6f18cb7694667e022047a68cd81aada4770b7c5f233ade0b49b00964736f6c634300081a0033",
					"opcodes": "PUSH1 0x80 PUSH1 0x40 MSTORE CALLVALUE DUP1 ISZERO PUSH2 0xF JUMPI PUSH0 DUP1 REVERT JUMPDEST POP PUSH1 0x40 MLOAD PUSH2 0xE39 CODESIZE SUB DUP1 PUSH2 0xE39 DUP4 CODECOPY DUP2 DUP2 ADD PUSH1 0x40 MSTORE DUP2 ADD SWAP1 PUSH2 0x31 SWAP2 SWAP1 PUSH2 0x126 JUMP JUMPDEST DUP2 PUSH0 DUP1 PUSH2 0x100 EXP DUP2 SLOAD DUP2 PUSH20 0xFFFFFFFFFFFFFFFFFFFFFFFFFFFFFFFFFFFFFFFF MUL NOT AND SWAP1 DUP4 PUSH20 0xFFFFFFFFFFFFFFFFFFFFFFFFFFFFFFFFFFFFFFFF AND MUL OR SWAP1 SSTORE POP DUP1 PUSH1 0x1 PUSH0 PUSH2 0x100 EXP DUP2 SLOAD DUP2 PUSH20 0xFFFFFFFFFFFFFFFFFFFFFFFFFFFFFFFFFFFFFFFF MUL NOT AND SWAP1 DUP4 PUSH20 0xFFFFFFFFFFFFFFFFFFFFFFFFFFFFFFFFFFFFFFFF AND MUL OR SWAP1 SSTORE POP POP POP PUSH2 0x164 JUMP JUMPDEST PUSH0 DUP1 REVERT JUMPDEST PUSH0 PUSH20 0xFFFFFFFFFFFFFFFFFFFFFFFFFFFFFFFFFFFFFFFF DUP3 AND SWAP1 POP SWAP2 SWAP1 POP JUMP JUMPDEST PUSH0 PUSH2 0xE4 DUP3 PUSH2 0xBB JUMP JUMPDEST SWAP1 POP SWAP2 SWAP1 POP JUMP JUMPDEST PUSH0 PUSH2 0xF5 DUP3 PUSH2 0xDA JUMP JUMPDEST SWAP1 POP SWAP2 SWAP1 POP JUMP JUMPDEST PUSH2 0x105 DUP2 PUSH2 0xEB JUMP JUMPDEST DUP2 EQ PUSH2 0x10F JUMPI PUSH0 DUP1 REVERT JUMPDEST POP JUMP JUMPDEST PUSH0 DUP2 MLOAD SWAP1 POP PUSH2 0x120 DUP2 PUSH2 0xFC JUMP JUMPDEST SWAP3 SWAP2 POP POP JUMP JUMPDEST PUSH0 DUP1 PUSH1 0x40 DUP4 DUP6 SUB SLT ISZERO PUSH2 0x13C JUMPI PUSH2 0x13B PUSH2 0xB7 JUMP JUMPDEST JUMPDEST PUSH0 PUSH2 0x149 DUP6 DUP3 DUP7 ADD PUSH2 0x112 JUMP JUMPDEST SWAP3 POP POP PUSH1 0x20 PUSH2 0x15A DUP6 DUP3 DUP7 ADD PUSH2 0x112 JUMP JUMPDEST SWAP2 POP POP SWAP3 POP SWAP3 SWAP1 POP JUMP JUMPDEST PUSH2 0xCC8 DUP1 PUSH2 0x171 PUSH0 CODECOPY PUSH0 RETURN INVALID PUSH1 0x80 PUSH1 0x40 MSTORE CALLVALUE DUP1 ISZERO PUSH2 0xF JUMPI PUSH0 DUP1 REVERT JUMPDEST POP PUSH1 0x4 CALLDATASIZE LT PUSH2 0x9C JUMPI PUSH0 CALLDATALOAD PUSH1 0xE0 SHR DUP1 PUSH4 0x718DC3C3 GT PUSH2 0x64 JUMPI DUP1 PUSH4 0x718DC3C3 EQ PUSH2 0x144 JUMPI DUP1 PUSH4 0x72F702F3 EQ PUSH2 0x162 JUMPI DUP1 PUSH4 0xA694FC3A EQ PUSH2 0x180 JUMPI DUP1 PUSH4 0xD1232730 EQ PUSH2 0x19C JUMPI DUP1 PUSH4 0xF7C618C1 EQ PUSH2 0x1CC JUMPI PUSH2 0x9C JUMP JUMPDEST DUP1 PUSH4 0x2E1A7D4D EQ PUSH2 0xA0 JUMPI DUP1 PUSH4 0x372500AB EQ PUSH2 0xBC JUMPI DUP1 PUSH4 0x45BC78AB EQ PUSH2 0xC6 JUMPI DUP1 PUSH4 0x67B40CF7 EQ PUSH2 0xF6 JUMPI DUP1 PUSH4 0x6B12686B EQ PUSH2 0x126 JUMPI JUMPDEST PUSH0 DUP1 REVERT JUMPDEST PUSH2 0xBA PUSH1 0x4 DUP1 CALLDATASIZE SUB DUP2 ADD SWAP1 PUSH2 0xB5 SWAP2 SWAP1 PUSH2 0x86A JUMP JUMPDEST PUSH2 0x1EA JUMP JUMPDEST STOP JUMPDEST PUSH2 0xC4 PUSH2 0x3EA JUMP JUMPDEST STOP JUMPDEST PUSH2 0xE0 PUSH1 0x4 DUP1 CALLDATASIZE SUB DUP2 ADD SWAP1 PUSH2 0xDB SWAP2 SWAP1 PUSH2 0x8EF JUMP JUMPDEST PUSH2 0x4D8 JUMP JUMPDEST PUSH1 0x40 MLOAD PUSH2 0xED SWAP2 SWAP1 PUSH2 0x929 JUMP JUMPDEST PUSH1 0x40 MLOAD DUP1 SWAP2 SUB SWAP1 RETURN JUMPDEST PUSH2 0x110 PUSH1 0x4 DUP1 CALLDATASIZE SUB DUP2 ADD SWAP1 PUSH2 0x10B SWAP2 SWAP1 PUSH2 0x8EF JUMP JUMPDEST PUSH2 0x4ED JUMP JUMPDEST PUSH1 0x40 MLOAD PUSH2 0x11D SWAP2 SWAP1 PUSH2 0x929 JUMP JUMPDEST PUSH1 0x40 MLOAD DUP1 SWAP2 SUB SWAP1 RETURN JUMPDEST PUSH2 0x12E PUSH2 0x502 JUMP JUMPDEST PUSH1 0x40 MLOAD PUSH2 0x13B SWAP2 SWAP1 PUSH2 0x929 JUMP JUMPDEST PUSH1 0x40 MLOAD DUP1 SWAP2 SUB SWAP1 RETURN JUMPDEST PUSH2 0x14C PUSH2 0x507 JUMP JUMPDEST PUSH1 0x40 MLOAD PUSH2 0x159 SWAP2 SWAP1 PUSH2 0x929 JUMP JUMPDEST PUSH1 0x40 MLOAD DUP1 SWAP2 SUB SWAP1 RETURN JUMPDEST PUSH2 0x16A PUSH2 0x50C JUMP JUMPDEST PUSH1 0x40 MLOAD PUSH2 0x177 SWAP2 SWAP1 PUSH2 0x99D JUMP JUMPDEST PUSH1 0x40 MLOAD DUP1 SWAP2 SUB SWAP1 RETURN JUMPDEST PUSH2 0x19A PUSH1 0x4 DUP1 CALLDATASIZE SUB DUP2 ADD SWAP1 PUSH2 0x195 SWAP2 SWAP1 PUSH2 0x86A JUMP JUMPDEST PUSH2 0x52F JUMP JUMPDEST STOP JUMPDEST PUSH2 0x1B6 PUSH1 0x4 DUP1 CALLDATASIZE SUB DUP2 ADD SWAP1 PUSH2 0x1B1 SWAP2 SWAP1 PUSH2 0x8EF JUMP JUMPDEST PUSH2 0x6EB JUMP JUMPDEST PUSH1 0x40 MLOAD PUSH2 0x1C3 SWAP2 SWAP1 PUSH2 0x929 JUMP JUMPDEST PUSH1 0x40 MLOAD DUP1 SWAP2 SUB SWAP1 RETURN JUMPDEST PUSH2 0x1D4 PUSH2 0x700 JUMP JUMPDEST PUSH1 0x40 MLOAD PUSH2 0x1E1 SWAP2 SWAP1 PUSH2 0x99D JUMP JUMPDEST PUSH1 0x40 MLOAD DUP1 SWAP2 SUB SWAP1 RETURN JUMPDEST DUP1 PUSH1 0x2 PUSH0 CALLER PUSH20 0xFFFFFFFFFFFFFFFFFFFFFFFFFFFFFFFFFFFFFFFF AND PUSH20 0xFFFFFFFFFFFFFFFFFFFFFFFFFFFFFFFFFFFFFFFF AND DUP2 MSTORE PUSH1 0x20 ADD SWAP1 DUP2 MSTORE PUSH1 0x20 ADD PUSH0 KECCAK256 SLOAD LT ISZERO PUSH2 0x26A JUMPI PUSH1 0x40 MLOAD PUSH32 0x8C379A000000000000000000000000000000000000000000000000000000000 DUP2 MSTORE PUSH1 0x4 ADD PUSH2 0x261 SWAP1 PUSH2 0xA10 JUMP JUMPDEST PUSH1 0x40 MLOAD DUP1 SWAP2 SUB SWAP1 REVERT JUMPDEST PUSH2 0x272 PUSH2 0x3EA JUMP JUMPDEST DUP1 PUSH1 0x2 PUSH0 CALLER PUSH20 0xFFFFFFFFFFFFFFFFFFFFFFFFFFFFFFFFFFFFFFFF AND PUSH20 0xFFFFFFFFFFFFFFFFFFFFFFFFFFFFFFFFFFFFFFFF AND DUP2 MSTORE PUSH1 0x20 ADD SWAP1 DUP2 MSTORE PUSH1 0x20 ADD PUSH0 KECCAK256 PUSH0 DUP3 DUP3 SLOAD PUSH2 0x2BE SWAP2 SWAP1 PUSH2 0xA5B JUMP JUMPDEST SWAP3 POP POP DUP2 SWAP1 SSTORE POP PUSH0 DUP1 SLOAD SWAP1 PUSH2 0x100 EXP SWAP1 DIV PUSH20 0xFFFFFFFFFFFFFFFFFFFFFFFFFFFFFFFFFFFFFFFF AND PUSH20 0xFFFFFFFFFFFFFFFFFFFFFFFFFFFFFFFFFFFFFFFF AND PUSH4 0xA9059CBB CALLER DUP4 PUSH1 0x40 MLOAD DUP4 PUSH4 0xFFFFFFFF AND PUSH1 0xE0 SHL DUP2 MSTORE PUSH1 0x4 ADD PUSH2 0x31F SWAP3 SWAP2 SWAP1 PUSH2 0xA9D JUMP JUMPDEST PUSH1 0x20 PUSH1 0x40 MLOAD DUP1 DUP4 SUB DUP2 PUSH0 DUP8 GAS CALL ISZERO DUP1 ISZERO PUSH2 0x33B JUMPI RETURNDATASIZE PUSH0 DUP1 RETURNDATACOPY RETURNDATASIZE PUSH0 REVERT JUMPDEST POP POP POP POP PUSH1 0x40 MLOAD RETURNDATASIZE PUSH1 0x1F NOT PUSH1 0x1F DUP3 ADD AND DUP3 ADD DUP1 PUSH1 0x40 MSTORE POP DUP2 ADD SWAP1 PUSH2 0x35F SWAP2 SWAP1 PUSH2 0xAF9 JUMP JUMPDEST POP PUSH0 PUSH1 0x2 PUSH0 CALLER PUSH20 0xFFFFFFFFFFFFFFFFFFFFFFFFFFFFFFFFFFFFFFFF AND PUSH20 0xFFFFFFFFFFFFFFFFFFFFFFFFFFFFFFFFFFFFFFFF AND DUP2 MSTORE PUSH1 0x20 ADD SWAP1 DUP2 MSTORE PUSH1 0x20 ADD PUSH0 KECCAK256 SLOAD SUB PUSH2 0x3E7 JUMPI PUSH0 PUSH1 0x4 PUSH0 CALLER PUSH20 0xFFFFFFFFFFFFFFFFFFFFFFFFFFFFFFFFFFFFFFFF AND PUSH20 0xFFFFFFFFFFFFFFFFFFFFFFFFFFFFFFFFFFFFFFFF AND DUP2 MSTORE PUSH1 0x20 ADD SWAP1 DUP2 MSTORE PUSH1 0x20 ADD PUSH0 KECCAK256 DUP2 SWAP1 SSTORE POP JUMPDEST POP JUMP JUMPDEST PUSH0 PUSH2 0x3F4 CALLER PUSH2 0x725 JUMP JUMPDEST SWAP1 POP PUSH0 PUSH1 0x3 PUSH0 CALLER PUSH20 0xFFFFFFFFFFFFFFFFFFFFFFFFFFFFFFFFFFFFFFFF AND PUSH20 0xFFFFFFFFFFFFFFFFFFFFFFFFFFFFFFFFFFFFFFFF AND DUP2 MSTORE PUSH1 0x20 ADD SWAP1 DUP2 MSTORE PUSH1 0x20 ADD PUSH0 KECCAK256 DUP2 SWAP1 SSTORE POP PUSH1 0x1 PUSH0 SWAP1 SLOAD SWAP1 PUSH2 0x100 EXP SWAP1 DIV PUSH20 0xFFFFFFFFFFFFFFFFFFFFFFFFFFFFFFFFFFFFFFFF AND PUSH20 0xFFFFFFFFFFFFFFFFFFFFFFFFFFFFFFFFFFFFFFFF AND PUSH4 0xA9059CBB CALLER DUP4 PUSH1 0x40 MLOAD DUP4 PUSH4 0xFFFFFFFF AND PUSH1 0xE0 SHL DUP2 MSTORE PUSH1 0x4 ADD PUSH2 0x494 SWAP3 SWAP2 SWAP1 PUSH2 0xA9D JUMP JUMPDEST PUSH1 0x20 PUSH1 0x40 MLOAD DUP1 DUP4 SUB DUP2 PUSH0 DUP8 GAS CALL ISZERO DUP1 ISZERO PUSH2 0x4B0 JUMPI RETURNDATASIZE PUSH0 DUP1 RETURNDATACOPY RETURNDATASIZE PUSH0 REVERT JUMPDEST POP POP POP POP PUSH1 0x40 MLOAD RETURNDATASIZE PUSH1 0x1F NOT PUSH1 0x1F DUP3 ADD AND DUP3 ADD DUP1 PUSH1 0x40 MSTORE POP DUP2 ADD SWAP1 PUSH2 0x4D4 SWAP2 SWAP1 PUSH2 0xAF9 JUMP JUMPDEST POP POP JUMP JUMPDEST PUSH1 0x2 PUSH1 0x20 MSTORE DUP1 PUSH0 MSTORE PUSH1 0x40 PUSH0 KECCAK256 PUSH0 SWAP2 POP SWAP1 POP SLOAD DUP2 JUMP JUMPDEST PUSH1 0x3 PUSH1 0x20 MSTORE DUP1 PUSH0 MSTORE PUSH1 0x40 PUSH0 KECCAK256 PUSH0 SWAP2 POP SWAP1 POP SLOAD DUP2 JUMP JUMPDEST PUSH1 0x1 DUP2 JUMP JUMPDEST PUSH1 0x7 DUP2 JUMP JUMPDEST PUSH0 DUP1 SLOAD SWAP1 PUSH2 0x100 EXP SWAP1 DIV PUSH20 0xFFFFFFFFFFFFFFFFFFFFFFFFFFFFFFFFFFFFFFFF AND DUP2 JUMP JUMPDEST PUSH0 DUP2 GT PUSH2 0x571 JUMPI PUSH1 0x40 MLOAD PUSH32 0x8C379A000000000000000000000000000000000000000000000000000000000 DUP2 MSTORE PUSH1 0x4 ADD PUSH2 0x568 SWAP1 PUSH2 0xB6E JUMP JUMPDEST PUSH1 0x40 MLOAD DUP1 SWAP2 SUB SWAP1 REVERT JUMPDEST PUSH0 DUP1 SLOAD SWAP1 PUSH2 0x100 EXP SWAP1 DIV PUSH20 0xFFFFFFFFFFFFFFFFFFFFFFFFFFFFFFFFFFFFFFFF AND PUSH20 0xFFFFFFFFFFFFFFFFFFFFFFFFFFFFFFFFFFFFFFFF AND PUSH4 0x23B872DD CALLER ADDRESS DUP5 PUSH1 0x40 MLOAD DUP5 PUSH4 0xFFFFFFFF AND PUSH1 0xE0 SHL DUP2 MSTORE PUSH1 0x4 ADD PUSH2 0x5CD SWAP4 SWAP3 SWAP2 SWAP1 PUSH2 0xB8C JUMP JUMPDEST PUSH1 0x20 PUSH1 0x40 MLOAD DUP1 DUP4 SUB DUP2 PUSH0 DUP8 GAS CALL ISZERO DUP1 ISZERO PUSH2 0x5E9 JUMPI RETURNDATASIZE PUSH0 DUP1 RETURNDATACOPY RETURNDATASIZE PUSH0 REVERT JUMPDEST POP POP POP POP PUSH1 0x40 MLOAD RETURNDATASIZE PUSH1 0x1F NOT PUSH1 0x1F DUP3 ADD AND DUP3 ADD DUP1 PUSH1 0x40 MSTORE POP DUP2 ADD SWAP1 PUSH2 0x60D SWAP2 SWAP1 PUSH2 0xAF9 JUMP JUMPDEST POP DUP1 PUSH1 0x2 PUSH0 CALLER PUSH20 0xFFFFFFFFFFFFFFFFFFFFFFFFFFFFFFFFFFFFFFFF AND PUSH20 0xFFFFFFFFFFFFFFFFFFFFFFFFFFFFFFFFFFFFFFFF AND DUP2 MSTORE PUSH1 0x20 ADD SWAP1 DUP2 MSTORE PUSH1 0x20 ADD PUSH0 KECCAK256 PUSH0 DUP3 DUP3 SLOAD PUSH2 0x65A SWAP2 SWAP1 PUSH2 0xBC1 JUMP JUMPDEST SWAP3 POP POP DUP2 SWAP1 SSTORE POP PUSH0 PUSH1 0x4 PUSH0 CALLER PUSH20 0xFFFFFFFFFFFFFFFFFFFFFFFFFFFFFFFFFFFFFFFF AND PUSH20 0xFFFFFFFFFFFFFFFFFFFFFFFFFFFFFFFFFFFFFFFF AND DUP2 MSTORE PUSH1 0x20 ADD SWAP1 DUP2 MSTORE PUSH1 0x20 ADD PUSH0 KECCAK256 SLOAD SUB PUSH2 0x6E8 JUMPI TIMESTAMP PUSH1 0x4 PUSH0 CALLER PUSH20 0xFFFFFFFFFFFFFFFFFFFFFFFFFFFFFFFFFFFFFFFF AND PUSH20 0xFFFFFFFFFFFFFFFFFFFFFFFFFFFFFFFFFFFFFFFF AND DUP2 MSTORE PUSH1 0x20 ADD SWAP1 DUP2 MSTORE PUSH1 0x20 ADD PUSH0 KECCAK256 DUP2 SWAP1 SSTORE POP JUMPDEST POP JUMP JUMPDEST PUSH1 0x4 PUSH1 0x20 MSTORE DUP1 PUSH0 MSTORE PUSH1 0x40 PUSH0 KECCAK256 PUSH0 SWAP2 POP SWAP1 POP SLOAD DUP2 JUMP JUMPDEST PUSH1 0x1 PUSH0 SWAP1 SLOAD SWAP1 PUSH2 0x100 EXP SWAP1 DIV PUSH20 0xFFFFFFFFFFFFFFFFFFFFFFFFFFFFFFFFFFFFFFFF AND DUP2 JUMP JUMPDEST PUSH0 DUP1 PUSH2 0x730 DUP4 PUSH2 0x78F JUMP JUMPDEST SWAP1 POP PUSH1 0x64 DUP2 PUSH1 0x2 PUSH0 DUP7 PUSH20 0xFFFFFFFFFFFFFFFFFFFFFFFFFFFFFFFFFFFFFFFF AND PUSH20 0xFFFFFFFFFFFFFFFFFFFFFFFFFFFFFFFFFFFFFFFF AND DUP2 MSTORE PUSH1 0x20 ADD SWAP1 DUP2 MSTORE PUSH1 0x20 ADD PUSH0 KECCAK256 SLOAD PUSH2 0x77D SWAP2 SWAP1 PUSH2 0xBF4 JUMP JUMPDEST PUSH2 0x787 SWAP2 SWAP1 PUSH2 0xC62 JUMP JUMPDEST SWAP2 POP POP SWAP2 SWAP1 POP JUMP JUMPDEST PUSH0 DUP1 PUSH1 0x4 PUSH0 DUP5 PUSH20 0xFFFFFFFFFFFFFFFFFFFFFFFFFFFFFFFFFFFFFFFF AND PUSH20 0xFFFFFFFFFFFFFFFFFFFFFFFFFFFFFFFFFFFFFFFF AND DUP2 MSTORE PUSH1 0x20 ADD SWAP1 DUP2 MSTORE PUSH1 0x20 ADD PUSH0 KECCAK256 SLOAD TIMESTAMP PUSH2 0x7DA SWAP2 SWAP1 PUSH2 0xA5B JUMP JUMPDEST SWAP1 POP PUSH0 PUSH3 0x15180 DUP3 PUSH2 0x7EC SWAP2 SWAP1 PUSH2 0xC62 JUMP JUMPDEST SWAP1 POP PUSH1 0x1E DUP2 GT PUSH2 0x801 JUMPI PUSH1 0x1 SWAP3 POP POP POP PUSH2 0x82E JUMP JUMPDEST PUSH1 0x3C DUP2 GT PUSH2 0x814 JUMPI PUSH1 0x3 SWAP3 POP POP POP PUSH2 0x82E JUMP JUMPDEST PUSH1 0x5A DUP2 GT PUSH2 0x827 JUMPI PUSH1 0x5 SWAP3 POP POP POP PUSH2 0x82E JUMP JUMPDEST PUSH1 0x7 SWAP3 POP POP POP JUMPDEST SWAP2 SWAP1 POP JUMP JUMPDEST PUSH0 DUP1 REVERT JUMPDEST PUSH0 DUP2 SWAP1 POP SWAP2 SWAP1 POP JUMP JUMPDEST PUSH2 0x849 DUP2 PUSH2 0x837 JUMP JUMPDEST DUP2 EQ PUSH2 0x853 JUMPI PUSH0 DUP1 REVERT JUMPDEST POP JUMP JUMPDEST PUSH0 DUP2 CALLDATALOAD SWAP1 POP PUSH2 0x864 DUP2 PUSH2 0x840 JUMP JUMPDEST SWAP3 SWAP2 POP POP JUMP JUMPDEST PUSH0 PUSH1 0x20 DUP3 DUP5 SUB SLT ISZERO PUSH2 0x87F JUMPI PUSH2 0x87E PUSH2 0x833 JUMP JUMPDEST JUMPDEST PUSH0 PUSH2 0x88C DUP5 DUP3 DUP6 ADD PUSH2 0x856 JUMP JUMPDEST SWAP2 POP POP SWAP3 SWAP2 POP POP JUMP JUMPDEST PUSH0 PUSH20 0xFFFFFFFFFFFFFFFFFFFFFFFFFFFFFFFFFFFFFFFF DUP3 AND SWAP1 POP SWAP2 SWAP1 POP JUMP JUMPDEST PUSH0 PUSH2 0x8BE DUP3 PUSH2 0x895 JUMP JUMPDEST SWAP1 POP SWAP2 SWAP1 POP JUMP JUMPDEST PUSH2 0x8CE DUP2 PUSH2 0x8B4 JUMP JUMPDEST DUP2 EQ PUSH2 0x8D8 JUMPI PUSH0 DUP1 REVERT JUMPDEST POP JUMP JUMPDEST PUSH0 DUP2 CALLDATALOAD SWAP1 POP PUSH2 0x8E9 DUP2 PUSH2 0x8C5 JUMP JUMPDEST SWAP3 SWAP2 POP POP JUMP JUMPDEST PUSH0 PUSH1 0x20 DUP3 DUP5 SUB SLT ISZERO PUSH2 0x904 JUMPI PUSH2 0x903 PUSH2 0x833 JUMP JUMPDEST JUMPDEST PUSH0 PUSH2 0x911 DUP5 DUP3 DUP6 ADD PUSH2 0x8DB JUMP JUMPDEST SWAP2 POP POP SWAP3 SWAP2 POP POP JUMP JUMPDEST PUSH2 0x923 DUP2 PUSH2 0x837 JUMP JUMPDEST DUP3 MSTORE POP POP JUMP JUMPDEST PUSH0 PUSH1 0x20 DUP3 ADD SWAP1 POP PUSH2 0x93C PUSH0 DUP4 ADD DUP5 PUSH2 0x91A JUMP JUMPDEST SWAP3 SWAP2 POP POP JUMP JUMPDEST PUSH0 DUP2 SWAP1 POP SWAP2 SWAP1 POP JUMP JUMPDEST PUSH0 PUSH2 0x965 PUSH2 0x960 PUSH2 0x95B DUP5 PUSH2 0x895 JUMP JUMPDEST PUSH2 0x942 JUMP JUMPDEST PUSH2 0x895 JUMP JUMPDEST SWAP1 POP SWAP2 SWAP1 POP JUMP JUMPDEST PUSH0 PUSH2 0x976 DUP3 PUSH2 0x94B JUMP JUMPDEST SWAP1 POP SWAP2 SWAP1 POP JUMP JUMPDEST PUSH0 PUSH2 0x987 DUP3 PUSH2 0x96C JUMP JUMPDEST SWAP1 POP SWAP2 SWAP1 POP JUMP JUMPDEST PUSH2 0x997 DUP2 PUSH2 0x97D JUMP JUMPDEST DUP3 MSTORE POP POP JUMP JUMPDEST PUSH0 PUSH1 0x20 DUP3 ADD SWAP1 POP PUSH2 0x9B0 PUSH0 DUP4 ADD DUP5 PUSH2 0x98E JUMP JUMPDEST SWAP3 SWAP2 POP POP JUMP JUMPDEST PUSH0 DUP3 DUP3 MSTORE PUSH1 0x20 DUP3 ADD SWAP1 POP SWAP3 SWAP2 POP POP JUMP JUMPDEST PUSH32 0x53616C646F20696E737566696369656E74650000000000000000000000000000 PUSH0 DUP3 ADD MSTORE POP JUMP JUMPDEST PUSH0 PUSH2 0x9FA PUSH1 0x12 DUP4 PUSH2 0x9B6 JUMP JUMPDEST SWAP2 POP PUSH2 0xA05 DUP3 PUSH2 0x9C6 JUMP JUMPDEST PUSH1 0x20 DUP3 ADD SWAP1 POP SWAP2 SWAP1 POP JUMP JUMPDEST PUSH0 PUSH1 0x20 DUP3 ADD SWAP1 POP DUP2 DUP2 SUB PUSH0 DUP4 ADD MSTORE PUSH2 0xA27 DUP2 PUSH2 0x9EE JUMP JUMPDEST SWAP1 POP SWAP2 SWAP1 POP JUMP JUMPDEST PUSH32 0x4E487B7100000000000000000000000000000000000000000000000000000000 PUSH0 MSTORE PUSH1 0x11 PUSH1 0x4 MSTORE PUSH1 0x24 PUSH0 REVERT JUMPDEST PUSH0 PUSH2 0xA65 DUP3 PUSH2 0x837 JUMP JUMPDEST SWAP2 POP PUSH2 0xA70 DUP4 PUSH2 0x837 JUMP JUMPDEST SWAP3 POP DUP3 DUP3 SUB SWAP1 POP DUP2 DUP2 GT ISZERO PUSH2 0xA88 JUMPI PUSH2 0xA87 PUSH2 0xA2E JUMP JUMPDEST JUMPDEST SWAP3 SWAP2 POP POP JUMP JUMPDEST PUSH2 0xA97 DUP2 PUSH2 0x8B4 JUMP JUMPDEST DUP3 MSTORE POP POP JUMP JUMPDEST PUSH0 PUSH1 0x40 DUP3 ADD SWAP1 POP PUSH2 0xAB0 PUSH0 DUP4 ADD DUP6 PUSH2 0xA8E JUMP JUMPDEST PUSH2 0xABD PUSH1 0x20 DUP4 ADD DUP5 PUSH2 0x91A JUMP JUMPDEST SWAP4 SWAP3 POP POP POP JUMP JUMPDEST PUSH0 DUP2 ISZERO ISZERO SWAP1 POP SWAP2 SWAP1 POP JUMP JUMPDEST PUSH2 0xAD8 DUP2 PUSH2 0xAC4 JUMP JUMPDEST DUP2 EQ PUSH2 0xAE2 JUMPI PUSH0 DUP1 REVERT JUMPDEST POP JUMP JUMPDEST PUSH0 DUP2 MLOAD SWAP1 POP PUSH2 0xAF3 DUP2 PUSH2 0xACF JUMP JUMPDEST SWAP3 SWAP2 POP POP JUMP JUMPDEST PUSH0 PUSH1 0x20 DUP3 DUP5 SUB SLT ISZERO PUSH2 0xB0E JUMPI PUSH2 0xB0D PUSH2 0x833 JUMP JUMPDEST JUMPDEST PUSH0 PUSH2 0xB1B DUP5 DUP3 DUP6 ADD PUSH2 0xAE5 JUMP JUMPDEST SWAP2 POP POP SWAP3 SWAP2 POP POP JUMP JUMPDEST PUSH32 0x456C206D6F6E746F206465626520736572206D61796F7220717565206365726F PUSH0 DUP3 ADD MSTORE POP JUMP JUMPDEST PUSH0 PUSH2 0xB58 PUSH1 0x20 DUP4 PUSH2 0x9B6 JUMP JUMPDEST SWAP2 POP PUSH2 0xB63 DUP3 PUSH2 0xB24 JUMP JUMPDEST PUSH1 0x20 DUP3 ADD SWAP1 POP SWAP2 SWAP1 POP JUMP JUMPDEST PUSH0 PUSH1 0x20 DUP3 ADD SWAP1 POP DUP2 DUP2 SUB PUSH0 DUP4 ADD MSTORE PUSH2 0xB85 DUP2 PUSH2 0xB4C JUMP JUMPDEST SWAP1 POP SWAP2 SWAP1 POP JUMP JUMPDEST PUSH0 PUSH1 0x60 DUP3 ADD SWAP1 POP PUSH2 0xB9F PUSH0 DUP4 ADD DUP7 PUSH2 0xA8E JUMP JUMPDEST PUSH2 0xBAC PUSH1 0x20 DUP4 ADD DUP6 PUSH2 0xA8E JUMP JUMPDEST PUSH2 0xBB9 PUSH1 0x40 DUP4 ADD DUP5 PUSH2 0x91A JUMP JUMPDEST SWAP5 SWAP4 POP POP POP POP JUMP JUMPDEST PUSH0 PUSH2 0xBCB DUP3 PUSH2 0x837 JUMP JUMPDEST SWAP2 POP PUSH2 0xBD6 DUP4 PUSH2 0x837 JUMP JUMPDEST SWAP3 POP DUP3 DUP3 ADD SWAP1 POP DUP1 DUP3 GT ISZERO PUSH2 0xBEE JUMPI PUSH2 0xBED PUSH2 0xA2E JUMP JUMPDEST JUMPDEST SWAP3 SWAP2 POP POP JUMP JUMPDEST PUSH0 PUSH2 0xBFE DUP3 PUSH2 0x837 JUMP JUMPDEST SWAP2 POP PUSH2 0xC09 DUP4 PUSH2 0x837 JUMP JUMPDEST SWAP3 POP DUP3 DUP3 MUL PUSH2 0xC17 DUP2 PUSH2 0x837 JUMP JUMPDEST SWAP2 POP DUP3 DUP3 DIV DUP5 EQ DUP4 ISZERO OR PUSH2 0xC2E JUMPI PUSH2 0xC2D PUSH2 0xA2E JUMP JUMPDEST JUMPDEST POP SWAP3 SWAP2 POP POP JUMP JUMPDEST PUSH32 0x4E487B7100000000000000000000000000000000000000000000000000000000 PUSH0 MSTORE PUSH1 0x12 PUSH1 0x4 MSTORE PUSH1 0x24 PUSH0 REVERT JUMPDEST PUSH0 PUSH2 0xC6C DUP3 PUSH2 0x837 JUMP JUMPDEST SWAP2 POP PUSH2 0xC77 DUP4 PUSH2 0x837 JUMP JUMPDEST SWAP3 POP DUP3 PUSH2 0xC87 JUMPI PUSH2 0xC86 PUSH2 0xC35 JUMP JUMPDEST JUMPDEST DUP3 DUP3 DIV SWAP1 POP SWAP3 SWAP2 POP POP JUMP INVALID LOG2 PUSH5 0x6970667358 0x22 SLT KECCAK256 GASLIMIT 0xC5 POP PUSH5 0xCB6F18CB76 SWAP5 PUSH7 0x7E022047A68CD8 BYTE 0xAD LOG4 PUSH24 0xB7C5F233ADE0B49B00964736F6C634300081A0033000000 "
				},
				"gasEstimates": {
					"creation": {
						"codeDepositCost": "654400",
						"executionCost": "infinite",
						"totalCost": "infinite"
					},
					"external": {
						"MAX_REWARD_RATE()": "325",
						"MIN_REWARD_RATE()": "414",
						"claimRewards()": "infinite",
						"rewardBalance(address)": "2869",
						"rewardToken()": "infinite",
						"stake(uint256)": "infinite",
						"stakingBalance(address)": "2847",
						"stakingStartTime(address)": "2868",
						"stakingToken()": "infinite",
						"withdraw(uint256)": "infinite"
					},
					"internal": {
						"calculateRewards(address)": "infinite",
						"getRewardRate(address)": "infinite"
					}
				},
				"methodIdentifiers": {
					"MAX_REWARD_RATE()": "718dc3c3",
					"MIN_REWARD_RATE()": "6b12686b",
					"claimRewards()": "372500ab",
					"rewardBalance(address)": "67b40cf7",
					"rewardToken()": "f7c618c1",
					"stake(uint256)": "a694fc3a",
					"stakingBalance(address)": "45bc78ab",
					"stakingStartTime(address)": "d1232730",
					"stakingToken()": "72f702f3",
					"withdraw(uint256)": "2e1a7d4d"
				}
			},
			"storageLayout": {
				"storage": [
					{
						"astId": 83,
						"contract": "contracts/Stakingv1.sol:StakingRewards",
						"label": "stakingToken",
						"offset": 0,
						"slot": "0",
						"type": "t_contract(IERC20)77"
					},
					{
						"astId": 86,
						"contract": "contracts/Stakingv1.sol:StakingRewards",
						"label": "rewardToken",
						"offset": 0,
						"slot": "1",
						"type": "t_contract(IERC20)77"
					},
					{
						"astId": 90,
						"contract": "contracts/Stakingv1.sol:StakingRewards",
						"label": "stakingBalance",
						"offset": 0,
						"slot": "2",
						"type": "t_mapping(t_address,t_uint256)"
					},
					{
						"astId": 94,
						"contract": "contracts/Stakingv1.sol:StakingRewards",
						"label": "rewardBalance",
						"offset": 0,
						"slot": "3",
						"type": "t_mapping(t_address,t_uint256)"
					},
					{
						"astId": 98,
						"contract": "contracts/Stakingv1.sol:StakingRewards",
						"label": "stakingStartTime",
						"offset": 0,
						"slot": "4",
						"type": "t_mapping(t_address,t_uint256)"
					}
				],
				"types": {
					"t_address": {
						"encoding": "inplace",
						"label": "address",
						"numberOfBytes": "20"
					},
					"t_contract(IERC20)77": {
						"encoding": "inplace",
						"label": "contract IERC20",
						"numberOfBytes": "20"
					},
					"t_mapping(t_address,t_uint256)": {
						"encoding": "mapping",
						"key": "t_address",
						"label": "mapping(address => uint256)",
						"numberOfBytes": "32",
						"value": "t_uint256"
					},
					"t_uint256": {
						"encoding": "inplace",
						"label": "uint256",
						"numberOfBytes": "32"
					}
				}
			},
			"userdoc": {
				"kind": "user",
				"methods": {},
				"version": 1
			}
		}
	}
}