{
	"data": {
		"bytecode": {
			"linkReferences": {},
			"object": "608060405234801561000f575f80fd5b50604051610e39380380610e3983398181016040528101906100319190610126565b815f806101000a81548173ffffffffffffffffffffffffffffffffffffffff021916908373ffffffffffffffffffffffffffffffffffffffff1602179055508060015f6101000a81548173ffffffffffffffffffffffffffffffffffffffff021916908373ffffffffffffffffffffffffffffffffffffffff1602179055505050610164565b5f80fd5b5f73ffffffffffffffffffffffffffffffffffffffff82169050919050565b5f6100e4826100bb565b9050919050565b5f6100f5826100da565b9050919050565b610105816100eb565b811461010f575f80fd5b50565b5f81519050610120816100fc565b92915050565b5f806040838503121561013c5761013b6100b7565b5b5f61014985828601610112565b925050602061015a85828601610112565b9150509250929050565b610cc8806101715f395ff3fe608060405234801561000f575f80fd5b506004361061009c575f3560e01c8063718dc3c311610064578063718dc3c31461014457806372f702f314610162578063a694fc3a14610180578063d12327301461019c578063f7c618c1146101cc5761009c565b80632e1a7d4d146100a0578063372500ab146100bc57806345bc78ab146100c657806367b40cf7146100f65780636b12686b14610126575b5f80fd5b6100ba60048036038101906100b5919061086a565b6101ea565b005b6100c46103ea565b005b6100e060048036038101906100db91906108ef565b6104d8565b6040516100ed9190610929565b60405180910390f35b610110600480360381019061010b91906108ef565b6104ed565b60405161011d9190610929565b60405180910390f35b61012e610502565b60405161013b9190610929565b60405180910390f35b61014c610507565b6040516101599190610929565b60405180910390f35b61016a61050c565b604051610177919061099d565b60405180910390f35b61019a6004803603810190610195919061086a565b61052f565b005b6101b660048036038101906101b191906108ef565b6106eb565b6040516101c39190610929565b60405180910390f35b6101d4610700565b6040516101e1919061099d565b60405180910390f35b8060025f3373ffffffffffffffffffffffffffffffffffffffff1673ffffffffffffffffffffffffffffffffffffffff1681526020019081526020015f2054101561026a576040517f08c379a000000000000000000000000000000000000000000000000000000000815260040161026190610a10565b60405180910390fd5b6102726103ea565b8060025f3373ffffffffffffffffffffffffffffffffffffffff1673ffffffffffffffffffffffffffffffffffffffff1681526020019081526020015f205f8282546102be9190610a5b565b925050819055505f8054906101000a900473ffffffffffffffffffffffffffffffffffffffff1673ffffffffffffffffffffffffffffffffffffffff1663a9059cbb33836040518363ffffffff1660e01b815260040161031f929190610a9d565b6020604051808303815f875af115801561033b573d5f803e3d5ffd5b505050506040513d601f19601f8201168201806040525081019061035f9190610af9565b505f60025f3373ffffffffffffffffffffffffffffffffffffffff1673ffffffffffffffffffffffffffffffffffffffff1681526020019081526020015f2054036103e7575f60045f3373ffffffffffffffffffffffffffffffffffffffff1673ffffffffffffffffffffffffffffffffffffffff1681526020019081526020015f20819055505b50565b5f6103f433610725565b90505f60035f3373ffffffffffffffffffffffffffffffffffffffff1673ffffffffffffffffffffffffffffffffffffffff1681526020019081526020015f208190555060015f9054906101000a900473ffffffffffffffffffffffffffffffffffffffff1673ffffffffffffffffffffffffffffffffffffffff1663a9059cbb33836040518363ffffffff1660e01b8152600401610494929190610a9d565b6020604051808303815f875af11580156104b0573d5f803e3d5ffd5b505050506040513d601f19601f820116820180604052508101906104d49190610af9565b5050565b6002602052805f5260405f205f915090505481565b6003602052805f5260405f205f915090505481565b600181565b600781565b5f8054906101000a900473ffffffffffffffffffffffffffffffffffffffff1681565b5f8111610571576040517f08c379a000000000000000000000000000000000000000000000000000000000815260040161056890610b6e565b60405180910390fd5b5f8054906101000a900473ffffffffffffffffffffffffffffffffffffffff1673ffffffffffffffffffffffffffffffffffffffff166323b872dd3330846040518463ffffffff1660e01b81526004016105cd93929190610b8c565b6020604051808303815f875af11580156105e9573d5f803e3d5ffd5b505050506040513d601f19601f8201168201806040525081019061060d9190610af9565b508060025f3373ffffffffffffffffffffffffffffffffffffffff1673ffffffffffffffffffffffffffffffffffffffff1681526020019081526020015f205f82825461065a9190610bc1565b925050819055505f60045f3373ffffffffffffffffffffffffffffffffffffffff1673ffffffffffffffffffffffffffffffffffffffff1681526020019081526020015f2054036106e8574260045f3373ffffffffffffffffffffffffffffffffffffffff1673ffffffffffffffffffffffffffffffffffffffff1681526020019081526020015f20819055505b50565b6004602052805f5260405f205f915090505481565b60015f9054906101000a900473ffffffffffffffffffffffffffffffffffffffff1681565b5f806107308361078f565b905060648160025f8673ffffffffffffffffffffffffffffffffffffffff1673ffffffffffffffffffffffffffffffffffffffff1681526020019081526020015f205461077d9190610bf4565b6107879190610c62565b915050919050565b5f8060045f8473ffffffffffffffffffffffffffffffffffffffff1673ffffffffffffffffffffffffffffffffffffffff1681526020019081526020015f2054426107da9190610a5b565b90505f62015180826107ec9190610c62565b9050601e81116108015760019250505061082e565b603c81116108145760039250505061082e565b605a81116108275760059250505061082e565b6007925050505b919050565b5f80fd5b5f819050919050565b61084981610837565b8114610853575f80fd5b50565b5f8135905061086481610840565b92915050565b5f6020828403121561087f5761087e610833565b5b5f61088c84828501610856565b91505092915050565b5f73ffffffffffffffffffffffffffffffffffffffff82169050919050565b5f6108be82610895565b9050919050565b6108ce816108b4565b81146108d8575f80fd5b50565b5f813590506108e9816108c5565b92915050565b5f6020828403121561090457610903610833565b5b5f610911848285016108db565b91505092915050565b61092381610837565b82525050565b5f60208201905061093c5f83018461091a565b92915050565b5f819050919050565b5f61096561096061095b84610895565b610942565b610895565b9050919050565b5f6109768261094b565b9050919050565b5f6109878261096c565b9050919050565b6109978161097d565b82525050565b5f6020820190506109b05f83018461098e565b92915050565b5f82825260208201905092915050565b7f53616c646f20696e737566696369656e746500000000000000000000000000005f82015250565b5f6109fa6012836109b6565b9150610a05826109c6565b602082019050919050565b5f6020820190508181035f830152610a27816109ee565b9050919050565b7f4e487b71000000000000000000000000000000000000000000000000000000005f52601160045260245ffd5b5f610a6582610837565b9150610a7083610837565b9250828203905081811115610a8857610a87610a2e565b5b92915050565b610a97816108b4565b82525050565b5f604082019050610ab05f830185610a8e565b610abd602083018461091a565b9392505050565b5f8115159050919050565b610ad881610ac4565b8114610ae2575f80fd5b50565b5f81519050610af381610acf565b92915050565b5f60208284031215610b0e57610b0d610833565b5b5f610b1b84828501610ae5565b91505092915050565b7f456c206d6f6e746f206465626520736572206d61796f7220717565206365726f5f82015250565b5f610b586020836109b6565b9150610b6382610b24565b602082019050919050565b5f6020820190508181035f830152610b8581610b4c565b9050919050565b5f606082019050610b9f5f830186610a8e565b610bac6020830185610a8e565b610bb9604083018461091a565b949350505050565b5f610bcb82610837565b9150610bd683610837565b9250828201905080821115610bee57610bed610a2e565b5b92915050565b5f610bfe82610837565b9150610c0983610837565b9250828202610c1781610837565b91508282048414831517610c2e57610c2d610a2e565b5b5092915050565b7f4e487b71000000000000000000000000000000000000000000000000000000005f52601260045260245ffd5b5f610c6c82610837565b9150610c7783610837565b925082610c8757610c86610c35565b5b82820490509291505056fea264697066735822122045c55064cb6f18cb7694667e022047a68cd81aada4770b7c5f233ade0b49b00964736f6c634300081a0033",
			"opcodes": "PUSH1 0x80 PUSH1 0x40 MSTORE CALLVALUE DUP1 ISZERO PUSH2 0xF JUMPI PUSH0 DUP1 REVERT JUMPDEST POP PUSH1 0x40 MLOAD PUSH2 0xE39 CODESIZE SUB DUP1 PUSH2 0xE39 DUP4 CODECOPY DUP2 DUP2 ADD PUSH1 0x40 MSTORE DUP2 ADD SWAP1 PUSH2 0x31 SWAP2 SWAP1 PUSH2 0x126 JUMP JUMPDEST DUP2 PUSH0 DUP1 PUSH2 0x100 EXP DUP2 SLOAD DUP2 PUSH20 0xFFFFFFFFFFFFFFFFFFFFFFFFFFFFFFFFFFFFFFFF MUL NOT AND SWAP1 DUP4 PUSH20 0xFFFFFFFFFFFFFFFFFFFFFFFFFFFFFFFFFFFFFFFF AND MUL OR SWAP1 SSTORE POP DUP1 PUSH1 0x1 PUSH0 PUSH2 0x100 EXP DUP2 SLOAD DUP2 PUSH20 0xFFFFFFFFFFFFFFFFFFFFFFFFFFFFFFFFFFFFFFFF MUL NOT AND SWAP1 DUP4 PUSH20 0xFFFFFFFFFFFFFFFFFFFFFFFFFFFFFFFFFFFFFFFF AND MUL OR SWAP1 SSTORE POP POP POP PUSH2 0x164 JUMP JUMPDEST PUSH0 DUP1 REVERT JUMPDEST PUSH0 PUSH20 0xFFFFFFFFFFFFFFFFFFFFFFFFFFFFFFFFFFFFFFFF DUP3 AND SWAP1 POP SWAP2 SWAP1 POP JUMP JUMPDEST PUSH0 PUSH2 0xE4 DUP3 PUSH2 0xBB JUMP JUMPDEST SWAP1 POP SWAP2 SWAP1 POP JUMP JUMPDEST PUSH0 PUSH2 0xF5 DUP3 PUSH2 0xDA JUMP JUMPDEST SWAP1 POP SWAP2 SWAP1 POP JUMP JUMPDEST PUSH2 0x105 DUP2 PUSH2 0xEB JUMP JUMPDEST DUP2 EQ PUSH2 0x10F JUMPI PUSH0 DUP1 REVERT JUMPDEST POP JUMP JUMPDEST PUSH0 DUP2 MLOAD SWAP1 POP PUSH2 0x120 DUP2 PUSH2 0xFC JUMP JUMPDEST SWAP3 SWAP2 POP POP JUMP JUMPDEST PUSH0 DUP1 PUSH1 0x40 DUP4 DUP6 SUB SLT ISZERO PUSH2 0x13C JUMPI PUSH2 0x13B PUSH2 0xB7 JUMP JUMPDEST JUMPDEST PUSH0 PUSH2 0x149 DUP6 DUP3 DUP7 ADD PUSH2 0x112 JUMP JUMPDEST SWAP3 POP POP PUSH1 0x20 PUSH2 0x15A DUP6 DUP3 DUP7 ADD PUSH2 0x112 JUMP JUMPDEST SWAP2 POP POP SWAP3 POP SWAP3 SWAP1 POP JUMP JUMPDEST PUSH2 0xCC8 DUP1 PUSH2 0x171 PUSH0 CODECOPY PUSH0 RETURN INVALID PUSH1 0x80 PUSH1 0x40 MSTORE CALLVALUE DUP1 ISZERO PUSH2 0xF JUMPI PUSH0 DUP1 REVERT JUMPDEST POP PUSH1 0x4 CALLDATASIZE LT PUSH2 0x9C JUMPI PUSH0 CALLDATALOAD PUSH1 0xE0 SHR DUP1 PUSH4 0x718DC3C3 GT PUSH2 0x64 JUMPI DUP1 PUSH4 0x718DC3C3 EQ PUSH2 0x144 JUMPI DUP1 PUSH4 0x72F702F3 EQ PUSH2 0x162 JUMPI DUP1 PUSH4 0xA694FC3A EQ PUSH2 0x180 JUMPI DUP1 PUSH4 0xD1232730 EQ PUSH2 0x19C JUMPI DUP1 PUSH4 0xF7C618C1 EQ PUSH2 0x1CC JUMPI PUSH2 0x9C JUMP JUMPDEST DUP1 PUSH4 0x2E1A7D4D EQ PUSH2 0xA0 JUMPI DUP1 PUSH4 0x372500AB EQ PUSH2 0xBC JUMPI DUP1 PUSH4 0x45BC78AB EQ PUSH2 0xC6 JUMPI DUP1 PUSH4 0x67B40CF7 EQ PUSH2 0xF6 JUMPI DUP1 PUSH4 0x6B12686B EQ PUSH2 0x126 JUMPI JUMPDEST PUSH0 DUP1 REVERT JUMPDEST PUSH2 0xBA PUSH1 0x4 DUP1 CALLDATASIZE SUB DUP2 ADD SWAP1 PUSH2 0xB5 SWAP2 SWAP1 PUSH2 0x86A JUMP JUMPDEST PUSH2 0x1EA JUMP JUMPDEST STOP JUMPDEST PUSH2 0xC4 PUSH2 0x3EA JUMP JUMPDEST STOP JUMPDEST PUSH2 0xE0 PUSH1 0x4 DUP1 CALLDATASIZE SUB DUP2 ADD SWAP1 PUSH2 0xDB SWAP2 SWAP1 PUSH2 0x8EF JUMP JUMPDEST PUSH2 0x4D8 JUMP JUMPDEST PUSH1 0x40 MLOAD PUSH2 0xED SWAP2 SWAP1 PUSH2 0x929 JUMP JUMPDEST PUSH1 0x40 MLOAD DUP1 SWAP2 SUB SWAP1 RETURN JUMPDEST PUSH2 0x110 PUSH1 0x4 DUP1 CALLDATASIZE SUB DUP2 ADD SWAP1 PUSH2 0x10B SWAP2 SWAP1 PUSH2 0x8EF JUMP JUMPDEST PUSH2 0x4ED JUMP JUMPDEST PUSH1 0x40 MLOAD PUSH2 0x11D SWAP2 SWAP1 PUSH2 0x929 JUMP JUMPDEST PUSH1 0x40 MLOAD DUP1 SWAP2 SUB SWAP1 RETURN JUMPDEST PUSH2 0x12E PUSH2 0x502 JUMP JUMPDEST PUSH1 0x40 MLOAD PUSH2 0x13B SWAP2 SWAP1 PUSH2 0x929 JUMP JUMPDEST PUSH1 0x40 MLOAD DUP1 SWAP2 SUB SWAP1 RETURN JUMPDEST PUSH2 0x14C PUSH2 0x507 JUMP JUMPDEST PUSH1 0x40 MLOAD PUSH2 0x159 SWAP2 SWAP1 PUSH2 0x929 JUMP JUMPDEST PUSH1 0x40 MLOAD DUP1 SWAP2 SUB SWAP1 RETURN JUMPDEST PUSH2 0x16A PUSH2 0x50C JUMP JUMPDEST PUSH1 0x40 MLOAD PUSH2 0x177 SWAP2 SWAP1 PUSH2 0x99D JUMP JUMPDEST PUSH1 0x40 MLOAD DUP1 SWAP2 SUB SWAP1 RETURN JUMPDEST PUSH2 0x19A PUSH1 0x4 DUP1 CALLDATASIZE SUB DUP2 ADD SWAP1 PUSH2 0x195 SWAP2 SWAP1 PUSH2 0x86A JUMP JUMPDEST PUSH2 0x52F JUMP JUMPDEST STOP JUMPDEST PUSH2 0x1B6 PUSH1 0x4 DUP1 CALLDATASIZE SUB DUP2 ADD SWAP1 PUSH2 0x1B1 SWAP2 SWAP1 PUSH2 0x8EF JUMP JUMPDEST PUSH2 0x6EB JUMP JUMPDEST PUSH1 0x40 MLOAD PUSH2 0x1C3 SWAP2 SWAP1 PUSH2 0x929 JUMP JUMPDEST PUSH1 0x40 MLOAD DUP1 SWAP2 SUB SWAP1 RETURN JUMPDEST PUSH2 0x1D4 PUSH2 0x700 JUMP JUMPDEST PUSH1 0x40 MLOAD PUSH2 0x1E1 SWAP2 SWAP1 PUSH2 0x99D JUMP JUMPDEST PUSH1 0x40 MLOAD DUP1 SWAP2 SUB SWAP1 RETURN JUMPDEST DUP1 PUSH1 0x2 PUSH0 CALLER PUSH20 0xFFFFFFFFFFFFFFFFFFFFFFFFFFFFFFFFFFFFFFFF AND PUSH20 0xFFFFFFFFFFFFFFFFFFFFFFFFFFFFFFFFFFFFFFFF AND DUP2 MSTORE PUSH1 0x20 ADD SWAP1 DUP2 MSTORE PUSH1 0x20 ADD PUSH0 KECCAK256 SLOAD LT ISZERO PUSH2 0x26A JUMPI PUSH1 0x40 MLOAD PUSH32 0x8C379A000000000000000000000000000000000000000000000000000000000 DUP2 MSTORE PUSH1 0x4 ADD PUSH2 0x261 SWAP1 PUSH2 0xA10 JUMP JUMPDEST PUSH1 0x40 MLOAD DUP1 SWAP2 SUB SWAP1 REVERT JUMPDEST PUSH2 0x272 PUSH2 0x3EA JUMP JUMPDEST DUP1 PUSH1 0x2 PUSH0 CALLER PUSH20 0xFFFFFFFFFFFFFFFFFFFFFFFFFFFFFFFFFFFFFFFF AND PUSH20 0xFFFFFFFFFFFFFFFFFFFFFFFFFFFFFFFFFFFFFFFF AND DUP2 MSTORE PUSH1 0x20 ADD SWAP1 DUP2 MSTORE PUSH1 0x20 ADD PUSH0 KECCAK256 PUSH0 DUP3 DUP3 SLOAD PUSH2 0x2BE SWAP2 SWAP1 PUSH2 0xA5B JUMP JUMPDEST SWAP3 POP POP DUP2 SWAP1 SSTORE POP PUSH0 DUP1 SLOAD SWAP1 PUSH2 0x100 EXP SWAP1 DIV PUSH20 0xFFFFFFFFFFFFFFFFFFFFFFFFFFFFFFFFFFFFFFFF AND PUSH20 0xFFFFFFFFFFFFFFFFFFFFFFFFFFFFFFFFFFFFFFFF AND PUSH4 0xA9059CBB CALLER DUP4 PUSH1 0x40 MLOAD DUP4 PUSH4 0xFFFFFFFF AND PUSH1 0xE0 SHL DUP2 MSTORE PUSH1 0x4 ADD PUSH2 0x31F SWAP3 SWAP2 SWAP1 PUSH2 0xA9D JUMP JUMPDEST PUSH1 0x20 PUSH1 0x40 MLOAD DUP1 DUP4 SUB DUP2 PUSH0 DUP8 GAS CALL ISZERO DUP1 ISZERO PUSH2 0x33B JUMPI RETURNDATASIZE PUSH0 DUP1 RETURNDATACOPY RETURNDATASIZE PUSH0 REVERT JUMPDEST POP POP POP POP PUSH1 0x40 MLOAD RETURNDATASIZE PUSH1 0x1F NOT PUSH1 0x1F DUP3 ADD AND DUP3 ADD DUP1 PUSH1 0x40 MSTORE POP DUP2 ADD SWAP1 PUSH2 0x35F SWAP2 SWAP1 PUSH2 0xAF9 JUMP JUMPDEST POP PUSH0 PUSH1 0x2 PUSH0 CALLER PUSH20 0xFFFFFFFFFFFFFFFFFFFFFFFFFFFFFFFFFFFFFFFF AND PUSH20 0xFFFFFFFFFFFFFFFFFFFFFFFFFFFFFFFFFFFFFFFF AND DUP2 MSTORE PUSH1 0x20 ADD SWAP1 DUP2 MSTORE PUSH1 0x20 ADD PUSH0 KECCAK256 SLOAD SUB PUSH2 0x3E7 JUMPI PUSH0 PUSH1 0x4 PUSH0 CALLER PUSH20 0xFFFFFFFFFFFFFFFFFFFFFFFFFFFFFFFFFFFFFFFF AND PUSH20 0xFFFFFFFFFFFFFFFFFFFFFFFFFFFFFFFFFFFFFFFF AND DUP2 MSTORE PUSH1 0x20 ADD SWAP1 DUP2 MSTORE PUSH1 0x20 ADD PUSH0 KECCAK256 DUP2 SWAP1 SSTORE POP JUMPDEST POP JUMP JUMPDEST PUSH0 PUSH2 0x3F4 CALLER PUSH2 0x725 JUMP JUMPDEST SWAP1 POP PUSH0 PUSH1 0x3 PUSH0 CALLER PUSH20 0xFFFFFFFFFFFFFFFFFFFFFFFFFFFFFFFFFFFFFFFF AND PUSH20 0xFFFFFFFFFFFFFFFFFFFFFFFFFFFFFFFFFFFFFFFF AND DUP2 MSTORE PUSH1 0x20 ADD SWAP1 DUP2 MSTORE PUSH1 0x20 ADD PUSH0 KECCAK256 DUP2 SWAP1 SSTORE POP PUSH1 0x1 PUSH0 SWAP1 SLOAD SWAP1 PUSH2 0x100 EXP SWAP1 DIV PUSH20 0xFFFFFFFFFFFFFFFFFFFFFFFFFFFFFFFFFFFFFFFF AND PUSH20 0xFFFFFFFFFFFFFFFFFFFFFFFFFFFFFFFFFFFFFFFF AND PUSH4 0xA9059CBB CALLER DUP4 PUSH1 0x40 MLOAD DUP4 PUSH4 0xFFFFFFFF AND PUSH1 0xE0 SHL DUP2 MSTORE PUSH1 0x4 ADD PUSH2 0x494 SWAP3 SWAP2 SWAP1 PUSH2 0xA9D JUMP JUMPDEST PUSH1 0x20 PUSH1 0x40 MLOAD DUP1 DUP4 SUB DUP2 PUSH0 DUP8 GAS CALL ISZERO DUP1 ISZERO PUSH2 0x4B0 JUMPI RETURNDATASIZE PUSH0 DUP1 RETURNDATACOPY RETURNDATASIZE PUSH0 REVERT JUMPDEST POP POP POP POP PUSH1 0x40 MLOAD RETURNDATASIZE PUSH1 0x1F NOT PUSH1 0x1F DUP3 ADD AND DUP3 ADD DUP1 PUSH1 0x40 MSTORE POP DUP2 ADD SWAP1 PUSH2 0x4D4 SWAP2 SWAP1 PUSH2 0xAF9 JUMP JUMPDEST POP POP JUMP JUMPDEST PUSH1 0x2 PUSH1 0x20 MSTORE DUP1 PUSH0 MSTORE PUSH1 0x40 PUSH0 KECCAK256 PUSH0 SWAP2 POP SWAP1 POP SLOAD DUP2 JUMP JUMPDEST PUSH1 0x3 PUSH1 0x20 MSTORE DUP1 PUSH0 MSTORE PUSH1 0x40 PUSH0 KECCAK256 PUSH0 SWAP2 POP SWAP1 POP SLOAD DUP2 JUMP JUMPDEST PUSH1 0x1 DUP2 JUMP JUMPDEST PUSH1 0x7 DUP2 JUMP JUMPDEST PUSH0 DUP1 SLOAD SWAP1 PUSH2 0x100 EXP SWAP1 DIV PUSH20 0xFFFFFFFFFFFFFFFFFFFFFFFFFFFFFFFFFFFFFFFF AND DUP2 JUMP JUMPDEST PUSH0 DUP2 GT PUSH2 0x571 JUMPI PUSH1 0x40 MLOAD PUSH32 0x8C379A000000000000000000000000000000000000000000000000000000000 DUP2 MSTORE PUSH1 0x4 ADD PUSH2 0x568 SWAP1 PUSH2 0xB6E JUMP JUMPDEST PUSH1 0x40 MLOAD DUP1 SWAP2 SUB SWAP1 REVERT JUMPDEST PUSH0 DUP1 SLOAD SWAP1 PUSH2 0x100 EXP SWAP1 DIV PUSH20 0xFFFFFFFFFFFFFFFFFFFFFFFFFFFFFFFFFFFFFFFF AND PUSH20 0xFFFFFFFFFFFFFFFFFFFFFFFFFFFFFFFFFFFFFFFF AND PUSH4 0x23B872DD CALLER ADDRESS DUP5 PUSH1 0x40 MLOAD DUP5 PUSH4 0xFFFFFFFF AND PUSH1 0xE0 SHL DUP2 MSTORE PUSH1 0x4 ADD PUSH2 0x5CD SWAP4 SWAP3 SWAP2 SWAP1 PUSH2 0xB8C JUMP JUMPDEST PUSH1 0x20 PUSH1 0x40 MLOAD DUP1 DUP4 SUB DUP2 PUSH0 DUP8 GAS CALL ISZERO DUP1 ISZERO PUSH2 0x5E9 JUMPI RETURNDATASIZE PUSH0 DUP1 RETURNDATACOPY RETURNDATASIZE PUSH0 REVERT JUMPDEST POP POP POP POP PUSH1 0x40 MLOAD RETURNDATASIZE PUSH1 0x1F NOT PUSH1 0x1F DUP3 ADD AND DUP3 ADD DUP1 PUSH1 0x40 MSTORE POP DUP2 ADD SWAP1 PUSH2 0x60D SWAP2 SWAP1 PUSH2 0xAF9 JUMP JUMPDEST POP DUP1 PUSH1 0x2 PUSH0 CALLER PUSH20 0xFFFFFFFFFFFFFFFFFFFFFFFFFFFFFFFFFFFFFFFF AND PUSH20 0xFFFFFFFFFFFFFFFFFFFFFFFFFFFFFFFFFFFFFFFF AND DUP2 MSTORE PUSH1 0x20 ADD SWAP1 DUP2 MSTORE PUSH1 0x20 ADD PUSH0 KECCAK256 PUSH0 DUP3 DUP3 SLOAD PUSH2 0x65A SWAP2 SWAP1 PUSH2 0xBC1 JUMP JUMPDEST SWAP3 POP POP DUP2 SWAP1 SSTORE POP PUSH0 PUSH1 0x4 PUSH0 CALLER PUSH20 0xFFFFFFFFFFFFFFFFFFFFFFFFFFFFFFFFFFFFFFFF AND PUSH20 0xFFFFFFFFFFFFFFFFFFFFFFFFFFFFFFFFFFFFFFFF AND DUP2 MSTORE PUSH1 0x20 ADD SWAP1 DUP2 MSTORE PUSH1 0x20 ADD PUSH0 KECCAK256 SLOAD SUB PUSH2 0x6E8 JUMPI TIMESTAMP PUSH1 0x4 PUSH0 CALLER PUSH20 0xFFFFFFFFFFFFFFFFFFFFFFFFFFFFFFFFFFFFFFFF AND PUSH20 0xFFFFFFFFFFFFFFFFFFFFFFFFFFFFFFFFFFFFFFFF AND DUP2 MSTORE PUSH1 0x20 ADD SWAP1 DUP2 MSTORE PUSH1 0x20 ADD PUSH0 KECCAK256 DUP2 SWAP1 SSTORE POP JUMPDEST POP JUMP JUMPDEST PUSH1 0x4 PUSH1 0x20 MSTORE DUP1 PUSH0 MSTORE PUSH1 0x40 PUSH0 KECCAK256 PUSH0 SWAP2 POP SWAP1 POP SLOAD DUP2 JUMP JUMPDEST PUSH1 0x1 PUSH0 SWAP1 SLOAD SWAP1 PUSH2 0x100 EXP SWAP1 DIV PUSH20 0xFFFFFFFFFFFFFFFFFFFFFFFFFFFFFFFFFFFFFFFF AND DUP2 JUMP JUMPDEST PUSH0 DUP1 PUSH2 0x730 DUP4 PUSH2 0x78F JUMP JUMPDEST SWAP1 POP PUSH1 0x64 DUP2 PUSH1 0x2 PUSH0 DUP7 PUSH20 0xFFFFFFFFFFFFFFFFFFFFFFFFFFFFFFFFFFFFFFFF AND PUSH20 0xFFFFFFFFFFFFFFFFFFFFFFFFFFFFFFFFFFFFFFFF AND DUP2 MSTORE PUSH1 0x20 ADD SWAP1 DUP2 MSTORE PUSH1 0x20 ADD PUSH0 KECCAK256 SLOAD PUSH2 0x77D SWAP2 SWAP1 PUSH2 0xBF4 JUMP JUMPDEST PUSH2 0x787 SWAP2 SWAP1 PUSH2 0xC62 JUMP JUMPDEST SWAP2 POP POP SWAP2 SWAP1 POP JUMP JUMPDEST PUSH0 DUP1 PUSH1 0x4 PUSH0 DUP5 PUSH20 0xFFFFFFFFFFFFFFFFFFFFFFFFFFFFFFFFFFFFFFFF AND PUSH20 0xFFFFFFFFFFFFFFFFFFFFFFFFFFFFFFFFFFFFFFFF AND DUP2 MSTORE PUSH1 0x20 ADD SWAP1 DUP2 MSTORE PUSH1 0x20 ADD PUSH0 KECCAK256 SLOAD TIMESTAMP PUSH2 0x7DA SWAP2 SWAP1 PUSH2 0xA5B JUMP JUMPDEST SWAP1 POP PUSH0 PUSH3 0x15180 DUP3 PUSH2 0x7EC SWAP2 SWAP1 PUSH2 0xC62 JUMP JUMPDEST SWAP1 POP PUSH1 0x1E DUP2 GT PUSH2 0x801 JUMPI PUSH1 0x1 SWAP3 POP POP POP PUSH2 0x82E JUMP JUMPDEST PUSH1 0x3C DUP2 GT PUSH2 0x814 JUMPI PUSH1 0x3 SWAP3 POP POP POP PUSH2 0x82E JUMP JUMPDEST PUSH1 0x5A DUP2 GT PUSH2 0x827 JUMPI PUSH1 0x5 SWAP3 POP POP POP PUSH2 0x82E JUMP JUMPDEST PUSH1 0x7 SWAP3 POP POP POP JUMPDEST SWAP2 SWAP1 POP JUMP JUMPDEST PUSH0 DUP1 REVERT JUMPDEST PUSH0 DUP2 SWAP1 POP SWAP2 SWAP1 POP JUMP JUMPDEST PUSH2 0x849 DUP2 PUSH2 0x837 JUMP JUMPDEST DUP2 EQ PUSH2 0x853 JUMPI PUSH0 DUP1 REVERT JUMPDEST POP JUMP JUMPDEST PUSH0 DUP2 CALLDATALOAD SWAP1 POP PUSH2 0x864 DUP2 PUSH2 0x840 JUMP JUMPDEST SWAP3 SWAP2 POP POP JUMP JUMPDEST PUSH0 PUSH1 0x20 DUP3 DUP5 SUB SLT ISZERO PUSH2 0x87F JUMPI PUSH2 0x87E PUSH2 0x833 JUMP JUMPDEST JUMPDEST PUSH0 PUSH2 0x88C DUP5 DUP3 DUP6 ADD PUSH2 0x856 JUMP JUMPDEST SWAP2 POP POP SWAP3 SWAP2 POP POP JUMP JUMPDEST PUSH0 PUSH20 0xFFFFFFFFFFFFFFFFFFFFFFFFFFFFFFFFFFFFFFFF DUP3 AND SWAP1 POP SWAP2 SWAP1 POP JUMP JUMPDEST PUSH0 PUSH2 0x8BE DUP3 PUSH2 0x895 JUMP JUMPDEST SWAP1 POP SWAP2 SWAP1 POP JUMP JUMPDEST PUSH2 0x8CE DUP2 PUSH2 0x8B4 JUMP JUMPDEST DUP2 EQ PUSH2 0x8D8 JUMPI PUSH0 DUP1 REVERT JUMPDEST POP JUMP JUMPDEST PUSH0 DUP2 CALLDATALOAD SWAP1 POP PUSH2 0x8E9 DUP2 PUSH2 0x8C5 JUMP JUMPDEST SWAP3 SWAP2 POP POP JUMP JUMPDEST PUSH0 PUSH1 0x20 DUP3 DUP5 SUB SLT ISZERO PUSH2 0x904 JUMPI PUSH2 0x903 PUSH2 0x833 JUMP JUMPDEST JUMPDEST PUSH0 PUSH2 0x911 DUP5 DUP3 DUP6 ADD PUSH2 0x8DB JUMP JUMPDEST SWAP2 POP POP SWAP3 SWAP2 POP POP JUMP JUMPDEST PUSH2 0x923 DUP2 PUSH2 0x837 JUMP JUMPDEST DUP3 MSTORE POP POP JUMP JUMPDEST PUSH0 PUSH1 0x20 DUP3 ADD SWAP1 POP PUSH2 0x93C PUSH0 DUP4 ADD DUP5 PUSH2 0x91A JUMP JUMPDEST SWAP3 SWAP2 POP POP JUMP JUMPDEST PUSH0 DUP2 SWAP1 POP SWAP2 SWAP1 POP JUMP JUMPDEST PUSH0 PUSH2 0x965 PUSH2 0x960 PUSH2 0x95B DUP5 PUSH2 0x895 JUMP JUMPDEST PUSH2 0x942 JUMP JUMPDEST PUSH2 0x895 JUMP JUMPDEST SWAP1 POP SWAP2 SWAP1 POP JUMP JUMPDEST PUSH0 PUSH2 0x976 DUP3 PUSH2 0x94B JUMP JUMPDEST SWAP1 POP SWAP2 SWAP1 POP JUMP JUMPDEST PUSH0 PUSH2 0x987 DUP3 PUSH2 0x96C JUMP JUMPDEST SWAP1 POP SWAP2 SWAP1 POP JUMP JUMPDEST PUSH2 0x997 DUP2 PUSH2 0x97D JUMP JUMPDEST DUP3 MSTORE POP POP JUMP JUMPDEST PUSH0 PUSH1 0x20 DUP3 ADD SWAP1 POP PUSH2 0x9B0 PUSH0 DUP4 ADD DUP5 PUSH2 0x98E JUMP JUMPDEST SWAP3 SWAP2 POP POP JUMP JUMPDEST PUSH0 DUP3 DUP3 MSTORE PUSH1 0x20 DUP3 ADD SWAP1 POP SWAP3 SWAP2 POP POP JUMP JUMPDEST PUSH32 0x53616C646F20696E737566696369656E74650000000000000000000000000000 PUSH0 DUP3 ADD MSTORE POP JUMP JUMPDEST PUSH0 PUSH2 0x9FA PUSH1 0x12 DUP4 PUSH2 0x9B6 JUMP JUMPDEST SWAP2 POP PUSH2 0xA05 DUP3 PUSH2 0x9C6 JUMP JUMPDEST PUSH1 0x20 DUP3 ADD SWAP1 POP SWAP2 SWAP1 POP JUMP JUMPDEST PUSH0 PUSH1 0x20 DUP3 ADD SWAP1 POP DUP2 DUP2 SUB PUSH0 DUP4 ADD MSTORE PUSH2 0xA27 DUP2 PUSH2 0x9EE JUMP JUMPDEST SWAP1 POP SWAP2 SWAP1 POP JUMP JUMPDEST PUSH32 0x4E487B7100000000000000000000000000000000000000000000000000000000 PUSH0 MSTORE PUSH1 0x11 PUSH1 0x4 MSTORE PUSH1 0x24 PUSH0 REVERT JUMPDEST PUSH0 PUSH2 0xA65 DUP3 PUSH2 0x837 JUMP JUMPDEST SWAP2 POP PUSH2 0xA70 DUP4 PUSH2 0x837 JUMP JUMPDEST SWAP3 POP DUP3 DUP3 SUB SWAP1 POP DUP2 DUP2 GT ISZERO PUSH2 0xA88 JUMPI PUSH2 0xA87 PUSH2 0xA2E JUMP JUMPDEST JUMPDEST SWAP3 SWAP2 POP POP JUMP JUMPDEST PUSH2 0xA97 DUP2 PUSH2 0x8B4 JUMP JUMPDEST DUP3 MSTORE POP POP JUMP JUMPDEST PUSH0 PUSH1 0x40 DUP3 ADD SWAP1 POP PUSH2 0xAB0 PUSH0 DUP4 ADD DUP6 PUSH2 0xA8E JUMP JUMPDEST PUSH2 0xABD PUSH1 0x20 DUP4 ADD DUP5 PUSH2 0x91A JUMP JUMPDEST SWAP4 SWAP3 POP POP POP JUMP JUMPDEST PUSH0 DUP2 ISZERO ISZERO SWAP1 POP SWAP2 SWAP1 POP JUMP JUMPDEST PUSH2 0xAD8 DUP2 PUSH2 0xAC4 JUMP JUMPDEST DUP2 EQ PUSH2 0xAE2 JUMPI PUSH0 DUP1 REVERT JUMPDEST POP JUMP JUMPDEST PUSH0 DUP2 MLOAD SWAP1 POP PUSH2 0xAF3 DUP2 PUSH2 0xACF JUMP JUMPDEST SWAP3 SWAP2 POP POP JUMP JUMPDEST PUSH0 PUSH1 0x20 DUP3 DUP5 SUB SLT ISZERO PUSH2 0xB0E JUMPI PUSH2 0xB0D PUSH2 0x833 JUMP JUMPDEST JUMPDEST PUSH0 PUSH2 0xB1B DUP5 DUP3 DUP6 ADD PUSH2 0xAE5 JUMP JUMPDEST SWAP2 POP POP SWAP3 SWAP2 POP POP JUMP JUMPDEST PUSH32 0x456C206D6F6E746F206465626520736572206D61796F7220717565206365726F PUSH0 DUP3 ADD MSTORE POP JUMP JUMPDEST PUSH0 PUSH2 0xB58 PUSH1 0x20 DUP4 PUSH2 0x9B6 JUMP JUMPDEST SWAP2 POP PUSH2 0xB63 DUP3 PUSH2 0xB24 JUMP JUMPDEST PUSH1 0x20 DUP3 ADD SWAP1 POP SWAP2 SWAP1 POP JUMP JUMPDEST PUSH0 PUSH1 0x20 DUP3 ADD SWAP1 POP DUP2 DUP2 SUB PUSH0 DUP4 ADD MSTORE PUSH2 0xB85 DUP2 PUSH2 0xB4C JUMP JUMPDEST SWAP1 POP SWAP2 SWAP1 POP JUMP JUMPDEST PUSH0 PUSH1 0x60 DUP3 ADD SWAP1 POP PUSH2 0xB9F PUSH0 DUP4 ADD DUP7 PUSH2 0xA8E JUMP JUMPDEST PUSH2 0xBAC PUSH1 0x20 DUP4 ADD DUP6 PUSH2 0xA8E JUMP JUMPDEST PUSH2 0xBB9 PUSH1 0x40 DUP4 ADD DUP5 PUSH2 0x91A JUMP JUMPDEST SWAP5 SWAP4 POP POP POP POP JUMP JUMPDEST PUSH0 PUSH2 0xBCB DUP3 PUSH2 0x837 JUMP JUMPDEST SWAP2 POP PUSH2 0xBD6 DUP4 PUSH2 0x837 JUMP JUMPDEST SWAP3 POP DUP3 DUP3 ADD SWAP1 POP DUP1 DUP3 GT ISZERO PUSH2 0xBEE JUMPI PUSH2 0xBED PUSH2 0xA2E JUMP JUMPDEST JUMPDEST SWAP3 SWAP2 POP POP JUMP JUMPDEST PUSH0 PUSH2 0xBFE DUP3 PUSH2 0x837 JUMP JUMPDEST SWAP2 POP PUSH2 0xC09 DUP4 PUSH2 0x837 JUMP JUMPDEST SWAP3 POP DUP3 DUP3 MUL PUSH2 0xC17 DUP2 PUSH2 0x837 JUMP JUMPDEST SWAP2 POP DUP3 DUP3 DIV DUP5 EQ DUP4 ISZERO OR PUSH2 0xC2E JUMPI PUSH2 0xC2D PUSH2 0xA2E JUMP JUMPDEST JUMPDEST POP SWAP3 SWAP2 POP POP JUMP JUMPDEST PUSH32 0x4E487B7100000000000000000000000000000000000000000000000000000000 PUSH0 MSTORE PUSH1 0x12 PUSH1 0x4 MSTORE PUSH1 0x24 PUSH0 REVERT JUMPDEST PUSH0 PUSH2 0xC6C DUP3 PUSH2 0x837 JUMP JUMPDEST SWAP2 POP PUSH2 0xC77 DUP4 PUSH2 0x837 JUMP JUMPDEST SWAP3 POP DUP3 PUSH2 0xC87 JUMPI PUSH2 0xC86 PUSH2 0xC35 JUMP JUMPDEST JUMPDEST DUP3 DUP3 DIV SWAP1 POP SWAP3 SWAP2 POP POP JUMP INVALID LOG2 PUSH5 0x6970667358 0x22 SLT KECCAK256 GASLIMIT 0xC5 POP PUSH5 0xCB6F18CB76 SWAP5 PUSH7 0x7E022047A68CD8 BYTE 0xAD LOG4 PUSH24 0xB7C5F233ADE0B49B00964736F6C634300081A0033000000 "
		},
		"gasEstimates": {
			"creation": {
				"codeDepositCost": "654400",
				"executionCost": "infinite",
				"totalCost": "infinite"
			},
			"external": {
				"MAX_REWARD_RATE()": "325",
				"MIN_REWARD_RATE()": "414",
				"claimRewards()": "infinite",
				"rewardBalance(address)": "2869",
				"rewardToken()": "infinite",
				"stake(uint256)": "infinite",
				"stakingBalance(address)": "2847",
				"stakingStartTime(address)": "2868",
				"stakingToken()": "infinite",
				"withdraw(uint256)": "infinite"
			},
			"internal": {
				"calculateRewards(address)": "infinite",
				"getRewardRate(address)": "infinite"
			}
		},
		"methodIdentifiers": {
			"MAX_REWARD_RATE()": "718dc3c3",
			"MIN_REWARD_RATE()": "6b12686b",
			"claimRewards()": "372500ab",
			"rewardBalance(address)": "67b40cf7",
			"rewardToken()": "f7c618c1",
			"stake(uint256)": "a694fc3a",
			"stakingBalance(address)": "45bc78ab",
			"stakingStartTime(address)": "d1232730",
			"stakingToken()": "72f702f3",
			"withdraw(uint256)": "2e1a7d4d"
		}
	},
	"abi": [
		{
			"inputs": [
				{
					"internalType": "contract IERC20",
					"name": "_stakingToken",
					"type": "address"
				},
				{
					"internalType": "contract IERC20",
					"name": "_rewardToken",
					"type": "address"
				}
			],
			"stateMutability": "nonpayable",
			"type": "constructor"
		},
		{
			"inputs": [],
			"name": "MAX_REWARD_RATE",
			"outputs": [
				{
					"internalType": "uint256",
					"name": "",
					"type": "uint256"
				}
			],
			"stateMutability": "view",
			"type": "function"
		},
		{
			"inputs": [],
			"name": "MIN_REWARD_RATE",
			"outputs": [
				{
					"internalType": "uint256",
					"name": "",
					"type": "uint256"
				}
			],
			"stateMutability": "view",
			"type": "function"
		},
		{
			"inputs": [],
			"name": "claimRewards",
			"outputs": [],
			"stateMutability": "nonpayable",
			"type": "function"
		},
		{
			"inputs": [
				{
					"internalType": "address",
					"name": "",
					"type": "address"
				}
			],
			"name": "rewardBalance",
			"outputs": [
				{
					"internalType": "uint256",
					"name": "",
					"type": "uint256"
				}
			],
			"stateMutability": "view",
			"type": "function"
		},
		{
			"inputs": [],
			"name": "rewardToken",
			"outputs": [
				{
					"internalType": "contract IERC20",
					"name": "",
					"type": "address"
				}
			],
			"stateMutability": "view",
			"type": "function"
		},
		{
			"inputs": [
				{
					"internalType": "uint256",
					"name": "_amount",
					"type": "uint256"
				}
			],
			"name": "stake",
			"outputs": [],
			"stateMutability": "nonpayable",
			"type": "function"
		},
		{
			"inputs": [
				{
					"internalType": "address",
					"name": "",
					"type": "address"
				}
			],
			"name": "stakingBalance",
			"outputs": [
				{
					"internalType": "uint256",
					"name": "",
					"type": "uint256"
				}
			],
			"stateMutability": "view",
			"type": "function"
		},
		{
			"inputs": [
				{
					"internalType": "address",
					"name": "",
					"type": "address"
				}
			],
			"name": "stakingStartTime",
			"outputs": [
				{
					"internalType": "uint256",
					"name": "",
					"type": "uint256"
				}
			],
			"stateMutability": "view",
			"type": "function"
		},
		{
			"inputs": [],
			"name": "stakingToken",
			"outputs": [
				{
					"internalType": "contract IERC20",
					"name": "",
					"type": "address"
				}
			],
			"stateMutability": "view",
			"type": "function"
		},
		{
			"inputs": [
				{
					"internalType": "uint256",
					"name": "_amount",
					"type": "uint256"
				}
			],
			"name": "withdraw",
			"outputs": [],
			"stateMutability": "nonpayable",
			"type": "function"
		}
	]
}